:020000040001F9
:10400000F83A0020354101004741010049410100D3
:1040100000000000000000000000000000000000A0
:104020000000000000000000000000004B41010003
:1040300000000000000000004D4101004F41010060
:104040005141010051410100C1890100514101006C
:104050005141010000000000A58401005141010010
:104060005141010051410100514101005141010004
:1040700051410100514101005141010051410100F4
:1040800051410100835C0100514101005141010097
:10409000A55C0100514101000F6101005141010087
:1040A00051410100514101000000000000000000EA
:1040B0000000000000000000000000000000000000
:1040C0000348854607F07AFA00480047EB460100AE
:1040D000F83A0020401E00BF00BF00BF00BF00BF75
:1040E00000BF00BF00BF00BF00BF00BF00BFF1D1D5
:1040F00070470000401E00BF00BF00BF00BF00BFF0
:1041000000BF00BF00BF00BF00BF00BF00BFF1D1B4
:1041100070470000401E00BF00BF00BF00BF00BFCF
:1041200000BF00BF00BF00BF00BF00BF00BFF1D194
:10413000704700000748026803210A4302600648EE
:10414000804706480047FEE7FEE7FEE7FEE7FEE79A
:10415000FEE700002405004005420100C1400100C7
:1041600032483349086070473248008CC0B2012899
:1041700012D13048808C0007000F00280CD12D4848
:10418000806AF0210840402806D12A48C06A0840C9
:10419000002801D1012070470020FCE72548008C51
:1041A000C0B201282CD12348808C0007000F0028C2
:1041B00026D12048806AF0210840002806D11D48F9
:1041C000C06A0840002801D1012070471948806A60
:1041D000F0210840102806D11648C06A084000287F
:1041E00001D10120F1E71348806AF021084030280E
:1041F00006D11048C06A0840002801D10120E4E738
:104200000020E2E710B5FFF7C9FF002805D00A48F3
:104210000A494860C8130A498861FFF7A5FF0028CA
:1042200002D001200749886010BD00000024F4007E
:1042300000200020C00F00F0DFFF07C00005004095
:10424000006C00400006004070B500220121090406
:10425000F748006801F0ECFD044600BF2546002D3C
:1042600007D000BFF3A2FF211F31284604F06AFCEB
:1042700000BF00BF70BD70B5ED48006801F009FED9
:10428000044600BF2546002D07D000BFE9A2FF214C
:104290002E31284604F056FC00BF00BF70BD10B59B
:1042A0000446E7480068401CE5490860E548007896
:1042B000012809D108460068322805D30020E149C9
:1042C00008700A2000F035FA9621DD48006806F0F3
:1042D00021FE00291ED1FFF7CEFFDB480078002821
:1042E00005D1DA480078401CD849087004E0002065
:1042F000D6490870D4490870D4480078052806DBF0
:104300000020D2490870D049087005F073F8FFF713
:104310009BFF1EE0FF214B31C948006806F0FAFD03
:10432000002915D10020C649086006F0A3F8C84945
:10433000087008460078642802DB6320087008E0F3
:10434000C3480078002804DC0020C149087000E060
:1043500010BD00BFFCE770B5BE4A0121B44801F0B2
:1043600020FD044600BF2546002D07D000BFB1A2A6
:10437000FF211431284604F0E5FB00BF00BF70BDEB
:1043800070B5B548006801F084FD044600BF2546BD
:10439000002D07D000BFA7A2FF213A31284604F024
:1043A000D1FB00BF00BF70BD10B504460A2000F06D
:1043B000C0F904F0D0FFFFF7E3FF10BD70B5A74AC6
:1043C0000121A54801F0EDFC044600BF2546002D63
:1043D00007D000BF97A2FF214931284604F0B2FB65
:1043E00000BF00BF70BD70B500229D499A480068AB
:1043F00001F01EFD044600BF2546002D07D000BF7A
:104400008CA2FF214F31284604F09CFB00BF00BF67
:1044100070BD70B5002293499348006801F008FD13
:10442000044600BF2546002D07D000BF81A2FF2112
:104430005731284604F086FB00BF00BF70BD70B541
:104440008948006801F025FD044600BF2546002D7F
:1044500007D000BF77A2FF215E31284604F072FB2F
:1044600000BF00BF70BD10B50446FFF7E8FF10BDE8
:1044700070B57E4A01217C4801F093FC044600BFE0
:104480002546002D07D000BF6AA2FF216B312846C8
:1044900004F058FB00BF00BF70BD70B500BF744989
:1044A000032004F07FF8044600BF2546002D07D006
:1044B00000BF60A2FF217331284604F043FB00BF18
:1044C00000BF00BF70BD70B504460E46694805695F
:1044D000012C4BD1A807C00F002819D066480078DE
:1044E000002815D101206449087064A007F0B6F8CF
:1044F00065480078002807D00A2000F01AF900204B
:104500006149087005F00AFE01206049087070BD1D
:10451000A807C00F002828D157480078012824D1C7
:104520005BA007F09BF804F011FF04F027FF0220C6
:104530005B49087000205B4908800A2000F0F9F808
:1045400005F0ECFD05F05EFEFFF71AFFFFF74BFFED
:104550000020494908704D4908700021502004F09E
:10456000BEFB012050490870D1E700BF00BF00BF6B
:1045700000BFCCE770B500BF0023A42201214B4847
:1045800003F090FE044600BF2546002D06D000BF74
:1045900028A24749284604F0D5FA00BF00BF00BF53
:1045A00070BD10B5FFF779FFFFF7E4FF03F0BDFE24
:1045B000FFF7D1FEFFF748FEFFF700FF10BD70B513
:1045C000049C052905D1002A02D10125394E3570F8
:1045D00000BF00BF70BD10B504203749C88040201F
:1045E00088803648086003F09DFA3549324803F068
:1045F000FBFA642003F0BCFD10BD1CB50024322082
:1046000003F0B6FD6A4601212D4803F0A1FB00230B
:10461000082269462B4803F0A9FC00BF5DE0294849
:10462000005D302850DB2748005D39284CDC52E023
:10463000082000202E2E5C6D61696E2E6300000044
:10464000502000207D21002016200020172000206F
:10465000192000209F4201000C200020A9430100E6
:10466000333300009A9900001020002067440100B5
:104670004C22002000050050142000204F50454ED1
:10468000204C4F434B0D0A001A2000209821002097
:10469000434C4F5345204C4F434B0D0A0000000044
:1046A000152000209A2100207F2100205420002086
:1046B000190200003020002034200020BF450100F6
:1046C0003C200020E821002064211C4806F077FCF3
:1046D0000020C0431CBD601CC4B2184806F07AFC20
:1046E000A0429CD80020F5E7704700200BE000BFF7
:1046F00002210522120707231B02D2188300D15082
:1047000000BF411CC8B22028F1DB0022062107208F
:1047100004F02AF90A4805F078FB05F088FDFFF758
:1047200040FF0021022005F076FC00BF05F05DFB94
:10473000FCE701218140034AD1607047E821002055
:104740003C2000200005005070B504460D4600BF17
:10475000002D01D0012000E000200646002E05D1EA
:1047600000BFE6A2332104F0EDF900BF00BF00BF97
:10477000002C01D0012000E000200646002E05D1CB
:1047800000BFDEA2342104F0DDF900BF00BF2878AD
:10479000207029882879FF231B0219400020020677
:1047A000080A1043607028791B022968194000200C
:1047B0000204080C1043A07029791B0228681840D5
:1047C00000210902000E0843E07028792071287A40
:1047D0006071190CA8680840000AA0710902A86855
:1047E0000840000CE07170BDF8B505460E46002487
:1047F00000BF002E01D0012000E000200746002F5E
:1048000005D100BFBDA24B2104F09CF900BF00BF41
:1048100000BF002D01D0012000E000200746002F3E
:1048200005D100BFB5A24C2104F08CF900BF00BF38
:1048300032782046611CCCB22A542919708800F0C5
:1048400054F90019C4B22919B08800F04EF90019C2
:10485000C4B22919F08800F048F90019C4B200BFA9
:10486000072C01D1012000E000200746002F05D1D0
:1048700000BFA2A2542104F065F900BF00BFF8BD3B
:10488000F0B58FB007460D4614461E4600BF002DFA
:1048900001D0012000E0002000900098002805D100
:1048A00000BF96A26D2104F04DF900BF00BF00BF0C
:1048B000002C01DD012000E000200090009800287D
:1048C00005D100BF8DA26E2104F03CF900BF00BFEE
:1048D0001C2107A806F073FB6946087F0221884364
:1048E000801C69460877002008900A900B900C9075
:1048F0000D9000BF012108A881766846078700BF98
:104900000020019031786846017171784171807999
:1049100006218843811C684681718079082188437B
:1049200001466846817180791021884301466846B6
:10493000817180794108490068468171142102A87B
:1049400006F03DFB0EA8029001A803906846048281
:10495000002141828482069502AA07A97148008835
:10496000149BA2DF0FB0F0BD7FB5044600BF01214C
:10497000684681736C49818100BF6A4A03A901209E
:10498000A0DF0546002D02D0284604B070BD208867
:1049900000280DDD65480090228823463C3364489A
:1049A0006168FFF76DFF0546002D01D02846ECE752
:1049B000208900280EDD5F480090228923463C3381
:1049C0005B48401FE168FFF75BFF0546002D01D003
:1049D0002846DAE7208A00280EDD57480090228A10
:1049E00023463C335248001F6169FFF749FF0546E3
:1049F000002D01D02846C8E7208B00280EDD4F4847
:104A00000090228B23463C334948801EE169FFF722
:104A100037FF0546002D01D02846B6E7208C002838
:104A20000EDD47480090228C23463C334048C01E90
:104A3000616AFFF725FF0546002D01D02846A4E74F
:104A4000208D00280EDD3F480090228D23463C3308
:104A50003748401EE16AFFF713FF0546002D01D0DD
:104A6000284692E7206B002813D001A8216BFFF79E
:104A70006BFE354823463C33082201A900902C48A0
:104A8000801FFFF7FDFE0546002D01D028467CE77C
:104A900000BF606B00280FD02C480090606B02793B
:104AA00023463C3301682248401CFFF7E9FE0546D7
:104AB000002D01D0284668E7A06B002813D001A87C
:104AC000A16BFFF791FE224823463C33072201A940
:104AD000009017482730FFF7D3FE0546002D01D080
:104AE000284652E700BF00204FE702460A70FF2029
:104AF0000002104000124870022070472E2E5C53B6
:104B00006F757263655C626C655C626C655F736532
:104B10007276696365735C626C655F6469732E634A
:104B200000000000602000200A1800006220002021
:104B3000292A00006A200020722000207A2000200C
:104B4000822000208A200020922000209A2000202D
:104B5000A22000208A88C28270470022D243C282EB
:104B60007047F3B583B00446207E002829D004980E
:104B7000851D2E461A36287E02902988608981423A
:104B80000DD1288B02280AD13078012802D0707804
:104B9000022802D10120207601E00020207628881A
:104BA000E18888420CD12068002809D020680028BC
:104BB00006D02768324601A92046029BB84700BFAD
:104BC00000BF05B0F0BD70B505460C462088102822
:104BD00004D0112807D050280FD109E021462846DB
:104BE000FFF7B8FF0AE021462846FFF7B6FF05E0C9
:104BF00021462846FFF7B5FF00E000BF00BF70BDAB
:104C000030B58FB004460D461C2108A806F0D7F930
:104C100008A9087808218843083008A908700020EE
:104C200009900B900C900D900E9000BF01216846EA
:104C300081720A21C943018100BF00200190A97936
:104C400068460171E9794171807906218843811CA8
:104C500068468171807908218843014668468171E0
:104C60008079102188430146684681718079410826
:104C70004900491C68468171142103A806F09FF978
:104C800002A8039001A804900121684681820021B6
:104C9000C18214210183A088A31D03AA08A9A2DF51
:104CA0000FB030BD30B58FB004460D461C2108A8AA
:104CB00006F085F908A8007802218843811C08A81D
:104CC0000170007810218843217E002901D0012144
:104CD00000E00021090110221140084308A90870D2
:104CE000002009900B900C900D900E9000BF0121B8
:104CF000684681720921C943018100BF00200190EB
:104D0000A97968460171E979417180790621884362
:104D1000811C684681718079082188430146684674
:104D200081718079102188430146684681718079BC
:104D300041084900491C68468171142103A806F006
:104D40003EF902A8039001A80490012168468182DF
:104D50000021C18214210183A08823460E3303AAB7
:104D600008A9A2DF0FB030BDF8B504460E46306882
:104D700020600020C043E0823079207600BF01210E
:104D8000684681700F21C943018000BF221D69461A
:104D90000120A0DF0546002D01D02846F8BD314690
:104DA0002046FFF72DFF0546002D01D02846F5E7E8
:104DB00031462046FFF776FFF0E777B585B0044629
:104DC0000D460026E08A2649884216D0207E00281B
:104DD00013D000200190029003900490E18968466E
:104DE0008180012181710021018107A80390049530
:104DF000E08A01A9A6DF064600E00826304608B092
:104E000070BDF0B58BB004460F461646E08A1449D3
:104E1000884221D005963246394606A806F0B6F8F3
:104E200000200190029003900490E18968468180FF
:104E3000012181710021018105A8039006A8049039
:104E4000E08A01A9A6DF0546002D04D16846808AC4
:104E5000B04200D00C2500E0082528460BB0F0BD7C
:104E6000FFFF0000F7B584B004460F4606980678A9
:104E7000B01C1F2803DC2079801C1F2802DD0C20B9
:104E800007B0F0BD1F20801B801E85B20295B11CAB
:104E9000781802A97DDF03900398002801D00398B9
:104EA000EEE72068022808D168460089A84204DCA1
:104EB00009200190684605890BE0082001902079BF
:104EC000002804D02079A84201DC257901E0684659
:104ED0000589681CC2B23046711CCEB23A543046C5
:104EE000721CD6B20199395406980178A81C08188A
:104EF000C1B2069801700020C2E7F8B505460C461D
:104F00002078001D1F2801DD0C20F8BD684679DFE0
:104F10000646002E01D03046F7E703212278501CC8
:104F20002070A95419212278501C2070A95420788F
:104F300041196846008800F08BFA217840182070EB
:104F40000020E2E7F8B505460F4616461C4668689D
:104F5000002801D10720F8BD2078801C298840183E
:104F60001F2801DD0C20F6E72878401CC1B222780A
:104F7000501C2070B1542178481C207077542A8826
:104F800023789819696806F001F820782978401884
:104F900020700020DFE730B503461078C01C1F28C2
:104FA00001DD0C2030BD02241578681C10704C55B2
:104FB0000A241578681C10704C551578681C107000
:104FC0004B550020EEE7FFB587B006461D46109C06
:104FD0000020069020780590002747E0B90070680F
:104FE00041180A886846028149884181002203A944
:104FF00002A864DF04900498002802D004980BB043
:10500000F0BD6846017B099881422ED106980028A0
:1050100001D0002000E00220019020786946097B41
:105020004118019808181F2801DD0C20E7E70698B1
:10503000002809D12078401C20702278511C089843
:105040002170A854012006902078421903A902A8D3
:1050500064DF04900498002801D00498CFE72078FA
:105060006946097B4018207000BF7F1C3088B84219
:10507000B4DC0698002806D021780598401C081A50
:10508000C1B2059829540020B9E7FFB581B00746A1
:1050900015460A9E009602223846049B0299FFF7A5
:1050A00092FF0446002C02D0204605B0F0BD0096C9
:1050B000102229463846049BFFF785FF0446002C42
:1050C00001D02046F1E70020EFE7014608880628D6
:1050D00008DB08881922D201904205DD0888E14AE0
:1050E000904201D0072070474888062808DB48888E
:1050F0001922D201904205DD4888DA4A904201D057
:105100000720F0E70888D74A904208D048889042A4
:1051100005D008884A88904201DD0720E3E7002097
:10512000E1E7F8B506460D4614462078801D1F2895
:1051300001D90C20F8BD3046FFF7C7FF0746002F06
:1051400001D03846F6E705212278501C2070A9547A
:1051500012212278501C2070A954227851193088CD
:1051600000F076F921784018207022785119708863
:1051700000F06EF92178401820700020DAE7F8B5C9
:1051800005460E4614462879801CC7B22078801C3C
:10519000C0191F2801DD0C20F8BD781CC1B222788F
:1051A000501C2070B154FF212278501C2070B15443
:1051B00022789119288800F04BF921784018207046
:1051C000A88800280EDDA868002801D10720E3E7A1
:1051D000AA8823789819A96805F0D8FE207829793B
:1051E000401820700020D7E7FEB507460E4614464B
:1051F000786B002801D10720FEBD0020019032E02D
:10520000796B0C22019850430D182879801CC0B28C
:1052100000900098401CC1B22278501C2070B154FC
:1052200016212278501C2070B154227891192888B8
:1052300000F00EF9217840182070A88800280EDDB3
:10524000A868002801D10720D6E7AA8823789819F2
:10525000A96805F09BFE20782979401820700198F4
:10526000401CC0B201903820C15D01988142C7DC6A
:105270000020C1E7F8B504460F4616460025002079
:1052800030702068002809D0324639462046FFF7A2
:10529000E9FD0546002D01D02846F8BD60790028BB
:1052A00008D031463846FFF728FE0546002D01D0CC
:1052B0002846F2E7208900280BDD33463A460121D3
:1052C00020460830FFF73EFE0546002D01D0284657
:1052D000E3E7206900280BD00020216908563246F8
:1052E0003946FFF758FE0546002D01D02846D4E781
:1052F000A08A00280CDD3B460622022120461430FD
:105300000096FFF7C2FE0546002D01D02846C4E7EF
:10531000A08B00280CDD3B460722032120461C30D1
:105320000096FFF7B2FE0546002D01D02846B4E7EF
:10533000A08C00280CDD3B46152214212046243089
:105340000096FFF7A2FE0546002D01D02846A4E7EF
:10535000E06A002809D032463946E06AFFF7E1FEEC
:105360000546002D01D0284697E7206B002809D07C
:1053700032463946206BFFF702FF0546002D01D06B
:1053800028468AE73820005D002809DD3246394684
:105390002046FFF729FF0546002D01D028467CE76F
:1053A00028467AE701460889002808D0C8680028FE
:1053B00005D0C868007804221040002801D10720D9
:1053C00070470020FCE701460889002801DD07201E
:1053D00070470020FCE7F3B593B00D460021129111
:1053E00011911398002814D01398FFF7DBFF04469F
:1053F000002C02D0204615B0F0BD12AA09A91398BE
:10540000FFF738FF0446002C01D02046F3E709AE31
:1054100000E00026002D13D02846FFF7D4FF0446F5
:10542000002C01D02046E6E711AA01A92846FFF783
:1054300021FF0446002C01D02046DCE701AF00E04C
:10544000002710A803793A46017A304672DFD2E786
:1054500002460A70FF20000210400012487002202D
:1054600070470000FFFF0000F8B505460E46002417
:1054700032782146641C6A5472782146641C6A544E
:1054800000BF022C01D1012000E000200746002FC0
:1054900005D100BF08A2202103F054FB00BF00BFCC
:1054A0002046F8BD70B504460D46284605F092FD2D
:1054B0002080656070BD00002E2E5C536F75726396
:1054C000655C626C655C626C655F7365727669636E
:1054D00065735C626C655F7372765F636F6D6D6F31
:1054E0006E2E630010B5002819DAFA4A03071B0F65
:1054F000083B9B089B00D2588307DC0EFF23A34088
:105500009A438B071B0E8407E40EA3401A43F14B0A
:105510000407240F083CA408A4001A5118E0EE4A1E
:1055200003231B02D21883089B00D2588307DC0E8A
:10553000FF23A3409A438B071B0E8407E40EA3406E
:105540001A43E54B032424021B198408A4001A51B2
:1055500010BD10B50446E148846003211120FFF717
:10556000C1FF10BD10B501200004DD494860DC49D1
:1055700040394860112000F0D7FC112000F0C6FC33
:105580000120D84908602F20FEF7A4FD10BD10B5FA
:10559000112001218140D04A8032116000BF0120DA
:1055A0000004CF498860CE49403988600120CD4948
:1055B00048602F20FEF78EFD10BDF0B50246282072
:1055C0005043C94B1B68C118C8480068401C0028DC
:1055D00002D1C648026059E0C4488B68006828249C
:1055E0006043C14C246800198068834217D8BF48C3
:1055F000006828235843BC4B1B68C01880688B6820
:10560000C31ABA48006828246043B74C24680019BC
:105610008360B64800684862B448026036E08B6830
:10562000B24D2C6828680DE028254543AE4E3668FB
:10563000AD19AD685B1B044628254543AA4E366864
:10564000AD19686A451C002D07D028254543A64E94
:105650003668AD19AD689D42E6D3451C002D0CD0CF
:1056600028254543A04E3668AD19AD68EE1A2825A9
:1056700045439D4F3F68ED19AE608B604862282519
:105680006543994E3668AD196A6200BFF0BD70B5CA
:105690000246964C2168084609E0904200D109E094
:1056A000014628244443904D2D686419606A441CC7
:1056B000002CF2D100BF441C002C00D170BD8142EF
:1056C00009D18A4C246828256C43874D2D686419BC
:1056D000646A864D2C6028244443834D2D686419E8
:1056E000A36828244443804D2D686419656A2824E2
:1056F0004C437D4E3668A419656228244C437A4D8C
:105700002D686419606A441C002C0CD02824444382
:10571000754D2D686419A468E51828244443724E19
:105720003668A419A56000BFC8E710B5112000F0C5
:10573000F4FB10BD10B5142000F0EFFB10BD70B5E8
:1057400004466B480068002813D0694A216AE06962
:1057500012689047054600BF2E46002E07D000BFB6
:1057600064A2FF215531304603F0ECF900BF00BFC1
:1057700002E0E169206A884770BDF8B55B480068BF
:10578000401C00283AD0002700F000FC0446624884
:105790000168204600F0FDFB06465448056811E00C
:1057A00028206843504909684418A068B04200D9CD
:1057B0000BE0A068361AA068C719656A2046FFF793
:1057C000BEFF00BF681C0028EAD100BF5348007824
:1057D00053490978884209D151480078401CC0B229
:1057E0004F490870022801D1002008704C48007809
:1057F00080004C490F50FFF79DFF00BFF8BD0146E8
:1058000046480078464A127890421DD043480078B6
:10581000401C424A107010460078022801D1002036
:1058200010703E48007880003E4A105808603A4A9E
:10583000086812688018384A106010460068000234
:10584000000A1060012070470020086000BFFAE7DE
:10585000FEB52648006801903348007800906EE05D
:105860000098C000314909684418257863E0182081
:10587000684361680F18681CC5B2A078A84200D1BF
:1058800000253868022802D0032851D10EE02821D3
:1058900078684843144909684618307E002804D0C7
:1058A0007868FFF7F4FE0020307642E00CE00F4904
:1058B0000968282251430C4A126888180021017691
:1058C0000A4A416A116000BF08480068401C00286D
:1058D000EDD12EE01CED00E000E100E000150140FC
:1058E0004013014000100140B0200020BC200020E7
:1058F000D02000202E2E5C536F757263655C617042
:10590000705F636F6D6D6F6E5C6170705F74696DF9
:1059100065722E6300000000C0200020CC20002013
:10592000CD200020C4200020B4200020B82000207A
:1059300000BF00BF00BF6078A84298D100BF0098A8
:10594000411EC9B2009100288AD1FE480168019821
:10595000814201D00120FEBD0020FCE7F0B50346E6
:10596000002426E0F74E366828277E43F64F3F682E
:10597000F01986689E4203D98668F61A86601DE093
:1059800086689B1B86683419002686600676ED4E75
:105990003568EC4F466A3E604669002E08D00E1905
:1059A0003602360AC66046690661166846621560A8
:1059B00000BFE4480068401C0028D3D100BFF0BD00
:1059C000FEB50746DF4800680290E0480078019085
:1059D0006BE00198C000DE49096845185DE0781C5D
:1059E000002807D03E4628207043D749096844184C
:1059F000676A23E02978182359436A685018297880
:105A0000491C29702978AA78914201D10021297076
:105A1000466828217143CC4A12688C180168012914
:105A200002D1217E002900D037E08168E160C168A1
:105A30002161016961614169216200BFC549E06876
:105A40000968401A0002000AC349884208D2C149C5
:105A5000E068096800F09DFA21694018A06011E033
:105A6000BC48E168006800F094FA00902169009851
:105A7000814204D921690098081AA06001E0002041
:105A8000A06000BF0020E060206101202076801E21
:105A900060623046FFF791FD00BF781C00289ED160
:105AA0002878697888429AD100BF0198411EC9B20E
:105AB000019100288DD1A34801680298814201D04C
:105AC0000120FEBD0020FCE7FEB505469D480068AC
:105AD000401C002835D09B480068282148439A493B
:105AE00009684018866800F051FA029099480468E5
:105AF0002146029800F04DFAC01C0190681C002855
:105B000001D1FFF72FFD0198B04201D2304600E0ED
:105B1000019804192402240A20469049086000BF15
:105B200000F034FA00900299009800F032FAC71C95
:105B30002046029900F02DFA874201D9FFF7F5FDC2
:105B400001E0FFF724FDFEBDFEB50020C04301903B
:105B5000804804687B4807686846FFF750FE0546A2
:105B6000FFF776FE0646002D05D001AA21460098D3
:105B7000FFF7F4FE01260198FFF722FF002800D06E
:105B80000126002E02D03846FFF79EFFFEBD417071
:105B9000704770B502460B465078411C9078884299
:105BA00000D100211078884201D1002070BD196019
:105BB00050781826704355682C182046F6E7FFB534
:105BC00081B005460E461746E900614A12688818FA
:105BD0006946FFF7DEFF0446002C02D1042005B021
:105BE000F0BD01202060666000F0D0F9A060E760A1
:105BF000049820610A986061E900554A1268881883
:105C00000099FFF7C4FFFFF795FD0020E7E7F8B51F
:105C100004460E46E1004E4A126888186946FFF7AE
:105C2000B8FF0546002D01D10420F8BD02202860F0
:105C30006E60E100464A126888180099FFF7A7FFD6
:105C4000FFF778FD0020F0E738B50446E100404A50
:105C5000126888186946FFF79CFF0546002D01D1A0
:105C6000042038BD03202860001F6860E100384A26
:105C7000126888180099FFF78AFFFFF75BFD002084
:105C8000EFE710B500203649086000213448416034
:105C90008160C16000203249403908604860FFF7E8
:105CA0006CFD10BD10B5FFF74FFF10BDFFB581B003
:105CB0000E4617461C4620468107890F002901D150
:105CC000012100E00021002902D1072005B0F0BD2C
:105CD000002C01D10720F9E7FFF759FC21490A9868
:105CE0000860214806701848046000250CE0002177
:105CF00028206843144A1268115028206843124A29
:105D00001268801801766D1CB542F0DB28207043C4
:105D1000041903200D4908700D480460183400254B
:105D20000CE0E9000A4A12688818002101704170ED
:105D300087704460182179430C196D1C032DF0DB2A
:105D4000002013E0BC200020B0200020B420002060
:105D5000B8200020C0200020FFFF7F004015014038
:105D600040110140D0200020AC200020C0438B49CE
:105D7000086000208A4908708A490870142000F0E1
:105D8000D3F803211420FFF7ADFB142000F0BEF878
:105D90000198FFF7DEFB00F0F9F883490860002066
:105DA00094E770B503460C4680480068002801D18E
:105DB000082070BD002A01D10720FAE7002B01D18D
:105DC0000720F6E700211CE028204843774D2D6886
:105DD0002858002814D1012528204843734E3668DE
:105DE000355028204843714D2D68401944602820C3
:105DF00048436E4D2D684019C26119600020D8E7F4
:105E0000491C6B4800788142DEDB0420D1E710B5E5
:105E100000F092F8012802D0032804D101E0002408
:105E200003E0012401E0022400BF00BF204610BDB2
:105E3000FEB504460D4616465C480068002801D1B0
:105E40000820FEBD5A480078844201D2052D01D2B7
:105E50000720F6E7282060435449096808580128BC
:105E600001D00820EDE72820604350490968401818
:105E70004068012801D1284600E000200746FFF7CE
:105E8000C6FF3B462A46214600960190FFF797FE43
:105E9000D7E770B5044645480068002801D10820BE
:105EA00070BD43480078844201D30720F8E72820DA
:105EB00060433E4909680858012801D00820EFE7EF
:105EC000FFF7A5FF05462146FFF7A1FEE8E710B55D
:105ED00036480068002801D1082010BDFFF797FF61
:105EE0000446FFF7B1FEF8E710B5044600F04EF89F
:105EF0002060002010BD70B505460E4614463146A0
:105F0000284600F046F82060002070BDC206D20E80
:105F100001219140274A11607047C206D20E01212B
:105F20009140254A11607047C206D20E012191406E
:105F3000214A80321160704710B520484068C10581
:105F4000C90D002920D00A46103A104600280DDA63
:105F50001A4B1C330407240F083CA408A4001B5947
:105F60008407E40EE3401B069B0F0BE0114B032458
:105F700024021B198408A4001B598407E40EE34083
:105F80001B069B0FD8B210BD0420FCE70C484068EC
:105F900070470246501A0002000A7047BC200020D9
:105FA000CC200020CD200020C0200020B0200020E8
:105FB000AC20002000E100E000E200E000ED00E0A5
:105FC0000015014070B506460C4615462946204688
:105FD00002F0C3FD70BDF8B55A480078002800D122
:105FE000F8BD59480068002801D1012000E00020D8
:105FF000054656480068002801D1012000E0002035
:10600000064600BF002D14D168464EDF0446052C1D
:1060100001D101250CE0002C06D000BF4CA2692163
:10602000204602F08FFD03E0474900980968884741
:1060300000BF002E1AD15148008800906946504890
:10604000006860DF0446052C01D101260DE0002C1C
:1060500006D000BF3EA28021204602F073FD04E07E
:106060004748006839490968884700BF002D02D0B9
:10607000002E00D000E0C5E700BF00BFB0E7FFB5CD
:1060800081B00C4616461F46002C02D1072005B0F1
:10609000F0BD20468107890F002901D1012100E0D0
:1060A0000021002901D10720F1E735480460334879
:1060B0000680344807603449019810DF0546002DFA
:1060C00001D02846E3E701201E490870162023DF8F
:1060D000DDE710B511DF0446002C01D0012000E0FF
:1060E000002018490870204610BD0146002901D142
:1060F0000E207047154801600020FAE7014600298C
:1061000001D10E207047104801600020FAE770B5F9
:106110001C480068002811D01A48006880470446CF
:1061200000BF2546002D07D000BF09A2FF21333153
:10613000284602F007FD00BF00BF01E0FFF74BFF5C
:1061400070BD0000DE200020E4200020E0200020C0
:106150002E2E5C536F757263655C73645F636F6D45
:106160006D6F6E5C736F66746465766963655F6896
:10617000616E646C65722E6300000000DC200020FC
:10618000D8200020D4200020C55F010001464888A7
:10619000B74A1288904206DB4888B54A5288904236
:1061A00001DC012070470020FCE738B50546B14806
:1061B0000088B14988423BD0B0480078401CAF49C4
:1061C0000870AF48007B097888420FDBA849A948CE
:1061D000008875DF0446002C07D0A9488069002894
:1061E00003D0A74881692046884721E00020A349C1
:1061F0000870A348007C00280FD03B219D480088F0
:1062000076DF0446002C07D09D488069002803D023
:106210009B4881692046884700BF9948406900280B
:1062200006D000200090964841696846884700BF24
:1062300038BD70B505461C222946914804F0A6FEDB
:10624000002090490870286800280BD00822884850
:10625000296804F09BFE86487ADF0446002C08D0AB
:10626000204670BD82487BDF0446002C01D02046CA
:10627000F7E70020C0437F49088000207F4908706D
:10628000814A00218148FFF78CFDEAE710B57F487D
:106290000068FFF7FEFD10BD38B57D48FFF776FFBB
:1062A000002829D17748007800280AD0744840692E
:1062B000002820D000200090714841696846884736
:1062C00019E06E480078002802D16D48456801E069
:1062D0006B488568002229466C480068FFF7A8FDD6
:1062E0000446002C07D066488069002803D0644823
:1062F0008169204688470AE061484069002806D045
:10630000012000905E4841696846884700BF002030
:106310005C49087038BD10B50446A088554908800E
:10632000082221460E315A4804F030FE002053491D
:1063300008705348C089002801D1FFF7ADFF10BD98
:1063400070B505460020C0434A49088000204B49EB
:1063500008704E480068FFF79CFD0446002C07D0EB
:1063600047488069002803D045488169204688470E
:1063700070BD70B50546AC1D20884149C989884269
:1063800020D1208B02281DD100BF00BFA17EE27E5C
:10639000120211430846C107C90F002902D0FFF7B6
:1063A0007BFF0FE039480068FFF773FD0646002EBB
:1063B00007D033488069002803D0314881693046CE
:1063C000884700BF70BD10B504460822A11D3048A3
:1063D00004F0DCFDFFF760FF10BD10B50446208817
:1063E000102806D0112808D012280ED0502810D11D
:1063F00007E02046FFF78FFF0CE02046FFF7A0FFE5
:1064000008E02046FFF7B5FF04E02046FFF7DBFF7A
:1064100000E000BF00BF10BD38B504460822214689
:10642000134804F0B3FD12487ADF0546002D1CD155
:106430001748FFF7ABFE00280BD101201149087067
:106440000B490C48008875DF054601200B49087090
:106450000BE00B484069002806D001200090084856
:1064600041696846884700BF0025284638BD0000BE
:10647000E8200020F2200020FFFF0000F020002094
:106480008822002000210020AB610100FC200020B8
:10649000F42000200246100C0004FA4B984202D16E
:1064A0000A8000207047501C002801D10520F9E720
:1064B0000B20F7E77CB50546F34800780A2801DB96
:1064C00004207CBDF0480078002806D10022114647
:1064D000104601F02BFEED4908806A46EA48017833
:1064E000EB4801F035FC0446002C01D02046E8E7DB
:1064F00004234C222946684601F06EFC0446002C19
:1065000001D02046DDE7E14A4C21284601F00EFE8D
:10651000DE49088008460088DA490843DA490978E4
:106520008900DC4A5050D848007880008118002348
:106530000422684601F050FC0446002C01D020469D
:10654000BFE7D1480078401CCF4908700020B8E769
:106550007CB50546D04800780A2801DB04207CBDC4
:10656000CD480078002806D100221146104601F0DF
:10657000DDFDCA4908806A46C7480178C84801F06D
:10658000E7FB0446002C01D02046E8E704231C2248
:106590002946684601F020FC0446002C01D0204624
:1065A000DDE7BE4A1C21284601F0C0FDBB4908803A
:1065B00008460088B3490843B74909788900B94AB1
:1065C0005050B548007880008118002304226846A6
:1065D00001F002FC0446002C01D02046BFE7AE4883
:1065E0000078401CAC4908700020B8E77FB505462C
:1065F000A5480078002806D100221146104601F077
:1066000095FDA249088002AA9F480178A04801F0A0
:106610009FFB0446002C02D0204604B070BD00232E
:10662000042202A901A801F0A1FC0446002C01D01B
:106630002046F2E769460198FFF72CFF0446002C3C
:1066400001D02046E9E704234C2202A9284601F0A4
:106650008DFC0446002C01D02046DEE78B4A4C21FD
:10666000284601F063FD894908800846008869468C
:106670000988884206D184480078401C8249087005
:106680000020CAE70B20C8E77FB50546824800789E
:10669000002806D100221146104601F047FD7F492F
:1066A000088002AA7C4801787D4801F051FB04462D
:1066B000002C02D0204604B070BD0023042202A9A1
:1066C00001A801F053FC0446002C01D02046F2E75B
:1066D00069460198FFF7DEFE0446002C01D02046F3
:1066E000E9E704231C2202A9284601F03FFC0446E6
:1066F000002C01D02046DEE7684A1C21284601F024
:1067000015FD664908800846008869460988884260
:1067100006D161480078401C5F4908700020CAE734
:106720000B20C8E710B519214901594801F083FC35
:106730000446002C05D1FF214131594801F07BFC72
:106740000446204610BD38B500221146104601F01F
:10675000EDFC0090002409E068216143524A88184A
:106760006A464C2101F0E2FC0090641C4F4800781E
:106770008442F1DB6846008844490988884201D098
:10678000012038BD0020FCE738B500221146104634
:1067900001F0CCFC009000240BE068216143424AE8
:1067A000891808464C306A461C2101F0BFFC009055
:1067B000641C3E4800788442EFDB68460088374915
:1067C0000988884201D0012038BD0020FCE770B55F
:1067D00005463748406E002808D03548406E1428DA
:1067E00001D9032070BD324C503400E00024304801
:1067F0004C30008B82B221462E480088A9DFF1E799
:1068000010B5002100202C4A10702C4A107033E083
:1068100068224A43244BD018427A5207D20F002AEA
:1068200012D0027852B2254B1B78DB00244CE25484
:1068300002461E32214B1B78DB001B195A601F4A8F
:106840001278521C1D4B1A704222125C022A12D07E
:10685000027852B2184B1B78DB001A4CE254024605
:106860004232154B1B78DB001B195A60124A127812
:10687000521C114B1A70491C0C4800788142C7DB2E
:1068800010BD000000002453202100200C21002016
:106890001021002060260020212100200E21002050
:1068A000182100207C260020182300200821002029
:1068B000B022002006210020092100200A2100200A
:1068C00028260020F02500207CB50546FE480078EB
:1068D000072801DB04207CBD32222946FB4804F056
:1068E00055FBE988F948001FC18700214166F64839
:1068F0000078F649091F0860F3490978F24A1278CE
:10690000521CF14B1A7068225143F14A88186822D0
:10691000EE49091F04F03AFBFFF772FF0120ED4931
:10692000087000221146EC480088A9DF0446002CBC
:1069300001D02046CFE7E548001FFFF7BBFD044626
:10694000042C15D1E5484068002811D0042000909F
:10695000DE48001F007841B268460171DB48001F25
:10696000C18F6846C180DD4841686846884703E0BA
:10697000002C01D02046AEE7D8484068002811D04E
:1069800000200090D148001F007841B26846017194
:10699000CE48001FC18F6846C180D0484168684614
:1069A000884700BF002096E770B5C848001F0468FC
:1069B000002C23DBC448007884421FDAC5480078E5
:1069C000002808D068216143C14A88184C22BF4979
:1069D000091F04F0DBFAC248007800280AD06821B9
:1069E0006143BB4A891808464C301C22B7494831DC
:1069F00004F0CCFAFFF704FF002500E00325284649
:106A000070BD70B50546002412E068206043B049AF
:106A10004018C08FA8420AD1682060430A468118F6
:106A20006822AA48001F04F0B1FA002070BD641C5F
:106A3000A54800788442E8DB0520F7E770B594B0FC
:106A40000020A14908702FE001A8FFF7CFFD0546FF
:106A5000052D00D12CE0002D02D0284614B070BDC9
:106A6000019E99480078864201DD0B20F6E76821F7
:106A70007143974A88184C2201A904F087FA92487A
:106A8000007886420FD1002168207043904A801818
:106A90004166491E682070438018C1648A480078A6
:106AA000401C8949087000BF874800780728CBDB65
:106AB00000BF00241DE00DA8FFF7E6FD0546052DEB
:106AC00000D11AE0002D01D02846C7E77E49097899
:106AD0000D98884201DD0B20C0E768220D995143D3
:106AE0007B4A891808464C301C220DA904F04EFA46
:106AF000641C754800788442DDDB00BF724804786E
:106B000010E00021C94368206043714A1150002100
:106B10006820604380184166491E682060438018E1
:106B2000C164641C072CECDBFFF76AFE002095E7CC
:106B30007CB50446A088684908800020C0436349AA
:106B4000091F08600722A11D60483E3004F01EFAAC
:106B500000215E48001F4166607BC007C00F00280F
:106B60001AD0607B4508072D04DAE8005D49085615
:106B7000072804DB59488168032088470BE0E800B8
:106B8000584A105668225043514A811868224F488B
:106B9000001F04F0FBF921E0002519E0E80052494C
:106BA00040184668062249493F31701C04F019FA22
:106BB00000280CD1E8004C4A105668225043444A41
:106BC000811868224148001F04F0E0F904E06D1CC0
:106BD000464800788542E1DB00BF00BF3B48001F0C
:106BE0000068401C00281AD000203A4908703C492F
:106BF00008703A484068002811D0012000903348BE
:106C0000001F007841B2684601713048001FC18FF3
:106C10006846C180314841686846884700BF7CBDEE
:106C200070B505462948001F0068401C00280CD09C
:106C30002F480078C007C00F002806D02C480078E5
:106C4000022108404008002806D0002211462248B0
:106C50000088A9DF044609E01C48001FFFF7B7FDC4
:106C60000446002C02D101201D490870002C03D0DD
:106C70001A4881682046884770BD7CB50446322298
:106C80002146124804F082F9E1881048001FC187AC
:106C900001460968682251430D4A8818682104F0AA
:106CA0008EF90A49091F096868225143084A881861
:106CB00068220649091F04F069F90448001FFFF71C
:106CC000F9FB0546042D15E008210020B422002020
:106CD000182300202321002006210020A4220020C8
:106CE0002421002028260020F02500200921002052
:106CF0002221002013D1F948406800280FD0042039
:106D00000090F748007841B268460171F448C18F9D
:106D10006846C180F14841686846884705E0002D13
:106D200003D0EE48816828468847EC484068002830
:106D30000FD003200090EA48007841B26846017104
:106D4000E748C18F6846C180E44841686846884783
:106D500000BF7CBD70B504462078002800D070BD0F
:106D6000E0480078C007C00F002800D1F7E7DC48F2
:106D70000068401C002812D1E088FFF742FE05465B
:106D8000002D01D10F2503E02046FFF79DFD0546AC
:106D9000002D03D0D14881682846884705E00120AE
:106DA000D14908702046FFF768FF00BFD7E770B5EC
:106DB0000546E889FFF725FE0446002C10D1012086
:106DC000C94908700022C6490A31C848008881DFD5
:106DD0000446002C1ED0C14881682046884719E02F
:106DE000052C17D10C22A91DBD48363004F0CEF871
:106DF00000221146BD48008881DF0446002C03D0E4
:106E0000B64881682046884700221146B748008866
:106E1000A9DF0446002C03D0B0488168204688478B
:106E200070BDFEB5044620780607360F20780709A6
:106E3000012E01D1012F03DC022E2CD1002F2AD0EC
:106E400000BFA848007801210843A649087000BF88
:106E5000A348FFF7BCFC0546002D04D09F4881687D
:106E60002846884702E00120A14908709B484068F5
:106E700000280FD0022000909948007841B268465F
:106E800001719748C18F6846C1809448416868463F
:106E9000884700BF00BFFEBD10B50446A078C007FC
:106EA000C00F002813D000BF8E480078022108438D
:106EB0008C49087000BF8A480068401C002806D032
:106EC0000021874841661421503004F078F810BD45
:106ED00010B5044687480078002803D17F488168B0
:106EE000082088472088142820D006DC10280BD0E2
:106EF00011280DD0132825D11CE0172812D01828EE
:106F00001CD052281ED109E02046FFF711FE1AE0DE
:106F100000BF00207349087000BF14E02046FFF74F
:106F20007FFE10E0A01DFFF715FF0CE02046FFF7E5
:106F30003EFF08E0A01DFFF7AFFF04E0A01DFFF734
:106F400070FF00E000BF00BF10BD38B500BF69484A
:106F50000078002801D1082038BD00BF60480068D3
:106F6000401C00281CD0142000906A465C49503117
:106F70005E480088AADF0446002C01D02046EBE7DB
:106F8000574800685649C8646846018854484166B5
:106F9000FFF70AFD0446002C01D02046DCE700BFC5
:106FA000FFF7D1FB00281ED019214901524801F0FA
:106FB00042F80446002C01D02046CDE700204F497E
:106FC000087000250BE0682169434D4A8818FFF7D7
:106FD00071FA0446002C01D02046BDE76D1C4948DB
:106FE00000788542EFDBFFF7CFFB002820D0FF21A0
:106FF0004131454801F01FF80446002C01D02046DD
:10700000AAE700204149087000250DE06821694386
:107010003B4A891808464C30FFF79AFA0446002C80
:1070200001D0204698E76D1C364800788542EDDB9C
:107030000020C0432D49088029490860C864002108
:10704000274841660020284908702949087000BF78
:1070500082E738B52248406E002826D114200090DF
:107060006A461F49503121480088AADF0446002C97
:1070700001D0204638BD1A4800681949C8646846DE
:1070800001881748416601460968682251431C4A35
:10709000891808464C301C2211494C3103F076FF08
:1070A0000F484C30FFF754FAE4E70820E2E710B548
:1070B00000BF10480078002801D1082010BD00BF93
:1070C0000020104908700D490870104908701049D7
:1070D000087010490870FFF725FBEFE7A422002095
:1070E000B0220020222100202321002006210020A0
:1070F0002421002004210020102100202021002034
:107100001823002008210020182100202121002020
:107110000A2100200921002070B504460D46601C9C
:1071200000280DD0CF480078844209DA002D07D01E
:1071300068206043CC49401840308078022801D153
:10714000072070BD68206043C74A8018014642315D
:107150000722284603F01AFF0020F2E710B5024686
:10716000002107E0C800C14BC01840688B00C04C2C
:10717000E050491CBF4800788142F3DB002107E062
:10718000C800BD4BC01840688B00BC4CE050491C87
:10719000BB4800788142F3DBB94800781071B848E9
:1071A0000078002801D0B54800E000201060B14808
:1071B00000781073AF480078002801D0AC4800E098
:1071C00000209060002010BDF8B506460F4614461A
:1071D000069D002C03D0AB48816820468847F8BD47
:1071E0007CB50546A868002801D107207CBD502148
:1071F000684681800A21C180A3480090A34968465F
:1072000000F0F2FC0446002C01D02046EEE72020DE
:10721000694688809E49684600F0E6FC0446002CDA
:1072200001D02046E2E7974829460EC90EC06821E2
:10723000984803F0C4FE0020C04396490860964970
:1072400008800020874908709449087094490870A4
:1072500000BF9449087000BF8A48807800281FD07A
:10726000FFF760FA0446002C01D02046BEE700205C
:107270007C490870087810E00022D243682141431D
:10728000794B5A50002268214143C9184A66521E60
:1072900068214143C918CA64401C0728ECDB06E09A
:1072A000FFF7CCFB0446002C01D020469EE70120CE
:1072B0007D490870002099E710B5024600BF7A4862
:1072C0000078002801D1082010BD00BF002901D19D
:1072D0000E20F9E70888634B1B78984201DA0C20EE
:1072E000F2E7604800780880002A01D10020EBE72F
:1072F000002007E0682343435B4C1B19DB8F4400ED
:107300001353401C574B1B789842F3DB0020DBE7FC
:10731000F8B5074600BF64480078002801D108206E
:10732000F8BD00BF0026F64300240AE06820604351
:107330004D494018C08FB84201D166B205E0601CCB
:10734000C4B2484800788442F0DB00BF701C0028BB
:1073500001D10520E4E7F4B228E0621C68235A4317
:10736000414BD11868226243D018682203F00EFE08
:10737000682060433C490858401E682161433A4AEE
:1073800050506820604311464018C06C0021C9432A
:10739000884209D06820604311464018C06C401EE6
:1073A000682161438918C864601CC4B22D48007804
:1073B000401EA042D1DC2B490978491E6822514366
:1073C000294A8818682103F0FAFD26480078401EF3
:1073D00024490870FFF7A6F90546002D01D028467C
:1073E0009EE700202D4908702D49087000240CE00C
:1073F000682161431C4A8818FFF75CF80546002D98
:1074000001D028468CE7601CC4B21648007884423C
:10741000EEDB00240EE068216143134A8918084618
:107420004C30FFF795F80546002D01D0284677E748
:10743000601CC4B20B4800788442ECDBFFF7E0F933
:1074400000206DE7014600BF17480078002801D1F1
:107450000820704700BF13480078C007C00F0870AD
:107460000020F6E70821002018230020282600200D
:10747000B42600200A210020F025002098260020B4
:1074800009210020A4220020C97101001021002040
:1074900018210020B02200200621002020210020F9
:1074A000212100202221002004210020002314217A
:1074B0004143FC4A53541421414389184B8006230D
:1074C0001421414389188B600023142141438918FA
:1074D000CB601421414389180B6114214143891861
:1074E0008B80704710B50020EF490880EF49086095
:1074F000EC49091F087048708870002403E020469A
:10750000FFF7D4FF641C1E2CF9D310BDFFB583B068
:1075100004460F4615460326E448006800280BD1B0
:10752000002D06D10698002803D10220DF4908600B
:1075300002E00120DD490860DC480068030004F037
:10754000C8F807FD05314E84BAD7FD00D848406918
:10755000401C002808D001221207126991B2D44AB7
:10756000506903F0D7FC02E0012000074069401E8B
:1075700001210907096989B24843029001200007E7
:1075800000690004820C01200007006980B2784382
:107590000146029851DF0646002E02D10220C3495F
:1075A0000860D0E0384650DF0646002E16D1002D88
:1075B00011D1069800280AD12078042803D1072089
:1075C000BA4908600AE00520B849086006E00420CE
:1075D000B649086002E00320B4490860B3E0B4484B
:1075E0004069401C002808D001221207126991B29C
:1075F000AF4A506903F08EFC02E0012000074069A9
:10760000401E01210907096989B248430121090780
:107610000290096989B2794308462A46029951DFE6
:107620000646002E10D1069800280AD1207804289A
:1076300003D106209D49086006E005209B490860AB
:1076400002E00420994908607DE099484069401CA7
:10765000002808D001221207126991B2944A506999
:1076600003F058FC02E0012000074069401E0121A0
:107670000907096989B24843A90040186188401880
:10768000012109070290096989B27943AA00891882
:1076900062888818069A029951DF0646002E09D1A1
:1076A0002078042803D106208049086002E00520E4
:1076B0007E49086047E001200007006980B27843F6
:1076C000AB00C0180290608882082169029851DFDF
:1076D0000646002E0BD1002D06D10698002803D1B6
:1076E00007207249086002E00620704908602AE01D
:1076F0006F484069401C002808D001221207126917
:1077000091B26B4A506903F005FC02E001200007CA
:107710004069401E01210907096989B24843019067
:1077200001200007006981B2019803F0F3FB029089
:1077300050DF0646002E04D1072000E002E05B493E
:10774000086000E000BF00BF304607B0F0BDF0B5F4
:1077500085B00F275348001F007814214843514932
:107760004418E5682078022804D0042823D005288E
:107770006FD16FE0206903904B48008886026088D3
:10778000801B0490039880190390A08880194519E4
:10779000012189020498884206D20498820828466A
:1077A000039951DF074605E0FF220132284603997D
:1077B00051DF074681E0A06800013E49401800897A
:1077C0000490A0680001401840890390A06800015F
:1077D0004018406802900298A84205D10399049885
:1077E00048436188884202D0A06807280DD1012053
:1077F0000007006981B2284603F08CFB2A490988FA
:107800004618304650DF074622E001200007006995
:1078100081B2284603F07EFB06460120000700697E
:1078200080B27043281A8008019001200007006987
:1078300080B2711C484361884919401A8008009041
:1078400031462046009B019AFFF760FE074600BFC5
:1078500033E031E001200007006981B2284603F0DF
:1078600059FB0646A088411901200007006980B233
:107870007043081A80080490A08840196188421853
:1078800001200007006980B2711C4843801A8008FB
:10789000039031462046039B049AFFF737FE0746C4
:1078A0000BE00000D42600203021002034210020ED
:1078B000001000102C29002000BF00BF002F02D1B3
:1078C0000120FE498870384605B0F0BDFFB581B093
:1078D000064617460024F94840781E2837D0F74856
:1078E0000078F64949784018C4B21E2C02DB2046C5
:1078F0001E38C4B214206043F049091D0E541420F0
:10790000604340180761142060434118029805C87D
:10791000CA60886014206043E84A121D80180499E8
:1079200041801420604380180A9981800025101F2F
:107930008078002805D1FFF70AFF0546112D00D1F8
:107940000025DE484078401CDC49487000E00425F2
:10795000284605B0F0BDF8B50446D8480078142193
:107960004843D649091D0E5C081F0078142148437E
:10797000D249091D401880680001D1490D58CF48EF
:10798000007814214843CD49091D40184088091F3B
:107990000090097814225143C84A121D89180B69B6
:1079A000111F097814225143C44A121D8918084630
:1079B000083022463146A847F8BD10B50024BF481C
:1079C0004078002809DDFFF7C2FE0446002C04D0F1
:1079D000112C02D02046FFF7BEFF204610BDFEB599
:1079E00005460026B548807801287DD10020B3499E
:1079F0008870B4480068082811D1022D03D10020F6
:107A0000B049086002E00020AF490870FFF7D5FFD9
:107A10000646002E02D03046FFF79DFFFEBD022D28
:107A200002D0032D79D174E0A44800781421484392
:107A3000A249091D4418A5480088401CA349088094
:107A40002078022807D10846008880026188884291
:107A500001DB012000E0002007462078052805D141
:107A600098480068072801D1012000E0002002901A
:107A70002078042805D193480068072801D1012007
:107A800000E000200190207804280BD18F48008866
:107A900080026188884205DB8A480068002801D19D
:107AA000012000E0002000900298002807D10198F2
:107AB000002804D10098002801D1002F1FD00020F9
:107AC000804908603046FFF746FF7C490878FFF799
:107AD000EDFC00207D49088078484078401E7749B9
:107AE00048700846007800E01AE0401C087008461C
:107AF00000781E2803DB084600781E380870FFF760
:107B00005CFF0646002E02D03046FFF724FF05E05A
:107B100003E00D20FFF71FFF00E000BF00BF00BF24
:107B200000BF7BE770B5FFF7DDFC002068490880E7
:107B300068484069401C002808D0012212071269D9
:107B400091B2644A506903F0E5F902E001200007B0
:107B50004069C01F01210907096989B248435E498C
:107B6000086000205949088000BF0DE00021020193
:107B7000534B99500201D21811810201D218918100
:107B80000201D2185181401C0628EFD308204D492C
:107B9000086050484069401C002808D001221207A4
:107BA000126991B24B4A506903F0B4F902E0012026
:107BB00000074069401E01210907096989B248434D
:107BC000064601200007006981B2304603F0A2F9A1
:107BD000054650DF0446002C04D101203749887047
:107BE00039490870204670BDF8B504460D4600BFFF
:107BF00035480078002801D10820F8BD00BF002CCE
:107C000001D10E20F9E7002D01D10E20F5E7206803
:107C1000002801D10E20F0E7A08801210907096999
:107C200089B2884202DCA088102801DA0720E4E744
:107C3000E08800281ED027484069401C002808D052
:107C400001221207126991B2224A506903F062F9C7
:107C500002E0012000074069401E0121090709696F
:107C600089B24843E188A28851431B4A12688918A7
:107C7000884201D20720C0E720798007800F0028C2
:107C800001D00720B9E712480088062801D1042056
:107C9000B3E70F48008828600F48006868600C4907
:107CA00009880901064A89186868486008490988EE
:107CB000090120685050A08805490FE0D026002017
:107CC0002C290020342100203221002030210020E6
:107CD00028210020001000102C2100200988090113
:107CE00089180881E088F8490988090189184881BC
:107CF0000027A688E1884E4300BF781C87B2012088
:107D00000007006980B2B04205D201200007006977
:107D100080B2361A00E0002601200007006980B218
:107D2000EA4909684018E94908600120000700692C
:107D300080B2B042E1D9E44800880001E44940182B
:107D40008781E1480088401CDF490880002054E713
:107D50003CB5034600BFDF480078002801D1082069
:107D60003CBD00BF002B01D10E20F9E7002A01D154
:107D70000E20F5E71868062805D218680001D44CD3
:107D80002058002801D10720EAE75C6818680194B0
:107D90000090019C18680001CD4D401900894843AE
:107DA00020180190009800012C4600194089009C81
:107DB0002401641924896043009C240164196468C7
:107DC0000019019CA04201D80720C9E7019C009836
:107DD000546010600020C3E7F8B504460E4615460F
:107DE0001F4600BFBB480078002801D10820F8BD1D
:107DF00000BF002E01D10E20F9E7002C01D10E208A
:107E0000F5E72068062805D220680001B049085827
:107E1000002801D10720EAE720680001AC4940189A
:107E2000408921680901AA4A8918098948432168BB
:107E300009018918496840186168884201D80720FB
:107E4000D5E7002D06D020680001A149401800891F
:107E5000A84201DA0720CAE7E819216809019C4A0B
:107E600089180989884201DD0720C0E7304600F003
:107E700050F9002804D0384600F04BF9002801D111
:107E80001020B4E7606800F044F9002801D1102008
:107E9000ADE72B463246214602200097FFF716FD3C
:107EA000A5E7F8B504460E4615461F4600BF8948AB
:107EB0000078002801D10820F8BD00BF002E01D1B4
:107EC0000E20F9E7002C01D10E20F5E720680628E6
:107ED00005D2206800017E490858002801D10720FA
:107EE000EAE7206800017A494018408921680901C1
:107EF000774A89180989484321680901891849681E
:107F000040186168884201D80720D5E7002D06D0C7
:107F1000206800016E4940180089A84201DA072054
:107F2000CAE7E81921680901694A8918098988425C
:107F300001DD0720C0E7304600F0EBF8002804D050
:107F4000384600F0E6F8002801D11020B4E7606858
:107F500000F0DFF8002801D11020ADE72B463246B3
:107F6000214605200097FFF7B1FCA5E7F8B50746C5
:107F70000C4615461E4600BF56480078002801D121
:107F80000820F8BD00BF002C01D10E20F9E7002F1A
:107F900001D10E20F5E72068062805D220680001EF
:107FA0004B490858002801D10720EAE72068000162
:107FB00047494018408921680901454A89180989BB
:107FC0004843216809018918496840186168884256
:107FD00001D80720D5E7002D06D0206800013C49D4
:107FE00040180089A84201DA0720CAE7A8192168C9
:107FF0000901374A89180989884201DD0720C0E74D
:10800000384600F086F8002804D0304600F081F8A9
:10801000002801D11020B4E7606800F07AF8002849
:1080200001D11020ADE7606881192A46384602F078
:10803000ADFF0020A5E7F8B504460D4600BF254872
:108040000078002801D10820F8BD00BF002C01D124
:108050000E20F9E72068062805D2206800011C4997
:108060000858002801D10720EEE7206800011849D0
:108070004018408921680901154A8918098948432F
:10808000216809018918496840186168884201D847
:108090000720D9E7606800F03CF8002801D11020E3
:1080A000D2E723681B010A4FDB1962685B68D01AAC
:1080B000226812013B46D218118902F02BFF0029D9
:1080C0000AD00720C0E70000282100202C21002032
:1080D0002C2900203221002000202B460246214678
:1080E00000900420FFF7F2FB06463046ACE701465D
:1080F00000BF0C480078002801D10820704700BF5D
:10810000002901D10E20F9E70748407808600020D7
:10811000F4E701468807800F002801D1012070474D
:108120000020FCE732210020D026002070B5034655
:108130000C46002A01D10D4D00E01588284600218B
:1081400010E0051206023543A8B25D5C68400506E2
:108150002D0F684005034540A8B205062D0D6D00A2
:108160006840491CA142ECD370BD0000FFFF000035
:1081700001B505E00098401E00900348FBF7BAFFE8
:1081800000980028F6D108BDE7030000F8B50446C2
:108190000D4692480068002813D0EAB221788F4B30
:1081A000A0681B689847064600BF3746002F06D0D8
:1081B00000BF8BA22821384600F0C4FC00BF00BFDE
:1081C0000CE0012D04D120780121A268904705E040
:1081D000002D03D120780021A2689047F8BDF8B5A2
:1081E000074669468748007800F0EDFA0646002EFB
:1081F00000D0F8BD002535E00C20684382490968AD
:1082000044188248006822780121914008400028E3
:108210000FD0A06800280CD06078012804D100217C
:108220002046FFF7B3FF1BE001212046FFF7AEFF1A
:1082300016E07648406822780121914008400028E5
:108240000ED0A06800280BD06078012804D101214D
:108250002046FFF79BFF03E000212046FFF796FF33
:10826000681CC5B26A4800788542C5DB00BFC0E71C
:1082700070B504460D4667480068FDF70AFE0646DD
:10828000002E00D070BD6148446005602046284340
:108290000246614801685F480068FDF7C9FD06466F
:1082A00000BFEFE7FFB583B006460C461746052F23
:1082B00002D2072007B0F0BD53480660544804704E
:1082C00055480760454906980860002516E00C21CE
:1082D00061438819027800924168019101998900EF
:1082E0000522120707231B02D318009A9200995007
:1082F00000BF0278012191400D4300BF2046611E5E
:10830000CCB20028E3D1454B2A4629463D4800F02F
:1083100083F902900298002801D00298CAE7404AE7
:1083200000213C48FDF73DFDC4E710B53648006824
:10833000002801D1082010BD3248007800F0B1F9C2
:10834000F9E710B530480068002801D1082010BDB9
:108350002C48007800F016FA0446002C01D0204684
:10836000F5E72C480068FDF794FDF0E7F8B5054601
:108370000C460C20684324490968471822480068C5
:10838000002801D10820F8BD69461E48007800F099
:108390001AFA0646002E01D03046F4E77878002815
:1083A0000BD10098E840C007C00F002802D0002081
:1083B000207010E0012020700DE0787801280AD1AB
:1083C0000098E840C007C00F002802D001202070AC
:1083D00001E0002020700020D5E7000044210020AB
:1083E0002E2E5C536F757263655C6170705F636F96
:1083F0006D6D6F6E5C6170705F627574746F6E2E00
:108400006300000048210020382100205021002076
:108410003C2100204C2100204021002071820100DD
:10842000DF810100F0B502460C46002037E0012351
:108430008340194623460B40002B2FD0D5680D40B2
:10844000002D05D101235B04D5680D43D56004E000
:1084500003231B04D5688D43D56005252D0707260A
:108460003602AD198600AD5903263604B5430526FC
:10847000360707273F02F6198700F55105252D0716
:1084800007263602AD198600AD591D43052636076D
:1084900007273F02F6198700F55100BF401C20282E
:1084A000C5D3F0BDF0B585B0EF4805690020EF49B0
:1084B000C86300263FE014207043ED490968441862
:1084C0000120B040EB4909680840002831D0E0683D
:1084D000C043684021680840074639462046FFF7F8
:1084E000A1FFE148006968400390039800280ED07E
:1084F00003980543E068C043684021680840009045
:1085000020460099FFF78EFF0098074300BFA06840
:10851000A843384001906068284038400290019993
:1085200002980843002803D02269019902989047D5
:1085300000BF701CC6B2D04800788642BBDB05B0D5
:10854000F0BD10B50146002029E014224A43C84B73
:108550001B689A58012383401A40002A1ED0052226
:10856000120707231B02D2188300D25803231B04CF
:108570009A4305231B07072424021B1984001A5160
:108580000522120707231B02D2188300D2580523A5
:108590001B07072424021B1984001A51401C2028A1
:1085A000D3D310BD70B505460C46002C01D1072071
:1085B00070BD20468107890F002901D1012100E00B
:1085C0000021002901D10720F2E7A9480460AB4847
:1085D00005700020A8490870A6490860A7480078DF
:1085E000142250430146A248006802F0E8FC002033
:1085F000C043A3498860062001218140A14A11603F
:1086000000BF012100F0F9F80620012181409E4AB7
:10861000116000BF0020CBE7F8B504460D461646B2
:108620001F4693480068002801D10820F8BD002F9C
:1086300001D10720FAE790480078904909788842EC
:1086400001DB0420F2E7284630438B4909781422E5
:108650005143874A12685050874800781421484394
:1086600083490968401845608348007814214843CD
:108670007F490968401886607F4800781421484384
:108680007B490968401807617B48007820707A4868
:108690000078401C784908702078FFF752FF0020CE
:1086A000C4E7F0B5024672480068002801D10820EE
:1086B000F0BD71480078824201DB0720F8E7002016
:1086C0006A4BD863684804696A480068002802D188
:1086D00058066B4B586001209040664B1B6818434E
:1086E000644B1860002314205043614D2D684019DD
:1086F000C360002142E001238B40184614235343FA
:108700005B4D2D68EB580340002B36D025460540C5
:10871000002D02D003231B040EE001235B0414256B
:108720005543534E3668AD19ED680543142656433C
:108730004F4F3F68F619F56005252D0707263602CD
:10874000AD198E00AD5903263604B543052636070C
:1087500007273F02F6198F00F55105252D0707263B
:108760003602AD198E00AD591D4305263607072781
:108770003F02F6198F00F55100BF491C2029BAD3DA
:10878000002095E710B5044639480068002801D15B
:10879000082010BD38480078844201DB0720F8E744
:1087A0002046FFF7CEFE0120A040324909688143F0
:1087B000304801600068002803D10120C00730491B
:1087C00088600020E5E710B50246294800680028C7
:1087D00001D1082010BD28480078824201DB072023
:1087E000F8E714205043224C246803191E480069FE
:1087F0001C68204008600020ECE710B5002819DA5A
:10880000224A03071B0F083B9B089B00D258830793
:10881000DC0EFF23A3409A438B071B0E8407E40E54
:10882000A3401A43194B0407240F083CA408A400D2
:108830001A5118E0144A03231B02D21883089B0024
:10884000D2588307DC0EFF23A3409A438B071B0EED
:108850008407E40EA3401A430B4B032424021B1984
:108860008408A4001A5110BD00050050406100406A
:1088700060210020582100205D2100205C21002083
:108880000063004080E200E000E100E01CED00E059
:10889000C2B2A14BDA6100BFA04AD269012AFBD162
:1088A00000229E4BDA61704700BF9C488068012817
:1088B000FBD100209949886097488069C0B2704711
:1088C00070B504460D4601260AE02046641E0028C5
:1088D00004DB7D20C000FBF71DFC01E0002603E067
:1088E0008E4880680128F0D100BF002C05DB0020F5
:1088F0008A498860884880692870304670BD8649FA
:10890000C86100BF8549C9690129FBD10021834A9B
:10891000D161704730B50346002528466D1C1C5CAC
:1089200005E02046FFF7EBFF28466D1C1C5C002C81
:10893000F7D130BD70B505460C46022001218140BB
:10894000774A116000BF204600F0D2F80021284687
:1089500000F0D7F800BF0120A0407249C86000BFF6
:1089600000206D49086070BD70B505460C4616467E
:10897000284600F0BDF80021204600F0C2F8664805
:10898000C560446168486449486204200860012069
:108990006649886008600020604988600420644956
:1089A0004860022000F064F80321022000F067F81C
:1089B0000220012181405A4A803A116000BF70BDF7
:1089C00010B5002400BF554880680128FBD15248EB
:1089D0008069C4B2002051498860022000F048F844
:1089E000544800880121C903084000283FD151485C
:1089F000008849100840002813D00A2C03D000201A
:108A00004C49088033E04B4800888004800C4A4978
:108A10000C54484800880121C9030843454908808F
:108A200025E00D2C12D1434800888004800C424977
:108A30000C5440480088401C3E4908800846008885
:108A40000121890308433B49088010E03948008828
:108A50008004800C38490C5436480088401C354945
:108A6000088008460088C72801DD0020088010BD66
:108A7000C206D20E01219140304A1160704710B5F4
:108A8000002819DA2E4A03071B0F083B9B089B009E
:108A9000D2588307DC0EFF23A3409A438B071B0E9B
:108AA0008407E40EA3401A43254B0407240F083C17
:108AB000A408A4001A511AE0194A803A03231B02A1
:108AC000D21883089B00D2588307DC0EFF23A340F3
:108AD0009A438B071B0E8407E40EA3401A43104BE6
:108AE000803B032424021B198408A4001A5110BDE2
:108AF00001210522120707231B02D2188300D1503F
:108B0000704710B58A0005231B07072424021B1990
:108B100084001A5110BD00000025004000210040D3
:108B200080E100E00005005000E0D7010020004097
:108B300000230040662100208C29002080E200E014
:108B40001CED00E000BFBFF34F8FFE48FE49C86038
:108B5000BFF34F8F00BF00BFFEE703460C4622461F
:108B60001946FA48FFF7EEFFF8B505460E46002411
:108B70003EE002F0F9F907465E2102F0E1F9213109
:108B80002955285D302808DA02F0EEF907460A2157
:108B900002F0D6F93031295528E0285D39280BDD5F
:108BA000285D412808DA02F0DFF907461A2102F0B1
:108BB000C7F94131295519E0285D5A280BDD285D98
:108BC000612808DA02F0D0F907461A2102F0B8F954
:108BD000613129550AE0285D7A2807DD02F0C4F9E1
:108BE00007460A2102F0ACF930312955601CC4B2A5
:108BF000B442BEDBF8BD0246107867280DD150782C
:108C000074280AD19078D24B1870184600780F2833
:108C100001DC012070470220FCE7107867281ED095
:108C2000507874281BD01078002816D1507800286E
:108C300013D19078002810D1D07800280DD1107968
:108C400000280AD15079002807D19079002804D152
:108C5000507C002801D10420DCE70320DAE705205E
:108C6000D8E730B502460025002400231078672895
:108C700013D15078742810D1481E155C032303E0EB
:108C8000D05C4440581CC3B2481E9842F8DCAC4249
:108C900001D0002030BD0120FCE70020FAE70146AA
:108CA00000220A2905DB102903DC08465730C2B22E
:108CB00007E0092903DC08463030C2B201E0002099
:108CC00070471046FCE710B5A2480078A24A811808
:108CD0001023A24AA24802F0F2F8012010BDF0B51C
:108CE000A7B005460024782109A802F068F90027FA
:108CF0009C480078002875D0672108A8017174216C
:108D00004171462D7FD006DC162D6DD0412D09D046
:108D1000422D6AD15AE04D2D68D0502D67D0602D7C
:108D2000F7D17EE200200890002610218C48FFF742
:108D30001BFF01F0D7FB8C4908628C498A4881618E
:108D40008B48017888482030017208A8C5710899BD
:108D500001728548008B0004010E08A84172824808
:108D6000017E08A8817280482030017A08A8C1726B
:108D700000BF07E07A48815D3046083009AA1154E7
:108D8000701CC6B2102EF5DB7748008CC1B208A863
:108D900001777548008C0004010E08A841777248DD
:108DA000808CC1B208A881770024032604E009A8BA
:108DB000805D4440701CC6B21B2EF8DB08A8C47747
:108DC0001C27781FC1B208A8817148E20021002049
:108DD000684A1178012308AA9371D5711172002491
:108DE00003200AE053E20EE0B5E137E2C7E1DBE140
:108DF00009AA125C5440421CD0B20528F8DB08AA2C
:108E0000547206272BE2002008900790502006900D
:108E10000A215948006802F07DF84E49C968461891
:108E200056480078012801D1079001E00020079002
:108E300003A871DF059000BF059B002B05D000BF84
:108E40004FA256491846FFF77DFE00BF462108A8ED
:108E50008171C5713F48417808A801723D48817809
:108E600008A841723B48C17808A881723948017945
:108E700008A8C1723748417908A80173354881793B
:108E800008A8417386733004010E08A8C17330022C
:108E9000010E08A80174310E41746946497BF02225
:108EA00011400811FFF7FBFE08A988746946497B49
:108EB0000807000FFFF7F3FE08A9C87403A9897813
:108EC000F02211400811FFF7EAFE08A9087503A96E
:108ED00089780807000FFFF7E2FE08A9487503A983
:108EE000C978F02211400811FFF7D9FE014608A801
:108EF000817503A9C9780807000FFFF7D0FE014666
:108F000008A8C17503A90979F02211400811FFF7DB
:108F1000C6FE014608A8017603A909790807000FD3
:108F2000FFF7BDFE014608A8417603A94979F02262
:108F300011400811FFF7B3FE014608A88176C676F6
:108F400030042DE00400FA0500ED00E0EFBEADDED8
:108F5000682A0020FC2A0020642B0020402B0020DF
:108F6000522B002004200020D02A0020671200008D
:108F70001420002084210020802100207F21002057
:108F80002E2E5C757365725F66696C655C626C65DC
:108F90005F736572766963652E630000510200009D
:108FA000010E08A801773002010E08A84177310EA2
:108FB00081770799C177FE48017810A80170FC48B5
:108FC000417810A84170FA48817810A88170F8485B
:108FD000C17810A8C170F648017910A80171F44851
:108FE000417910A84171F248817910A88171F04847
:108FF000C17910A8C171EE48017A10A80172EC483D
:10900000417A10A84172EA48817A10A88172E84832
:10901000C17A10A8C172E648017B10A80173E44828
:10902000417B10A84173E248817B10A88173E0481E
:10903000C17B10A8C173DE48017C10A80174DC4814
:10904000417C10A84174DA48817C10A88174D8480A
:10905000C17C10A8C174D648017D10A80175D44800
:10906000417D10A84175D248817D10A88175D048F6
:10907000C17D10A8C175FFF726FECE48017810A863
:109080000176CC48417810A84176CA48817810A86A
:109090008176C848C17810A8C176C648017910A861
:1090A0000177C448417910A84177C248817910A856
:1090B0008177C048C17910A8C177BE48017A18A845
:1090C0000170BC48417A18A84170BA48817A18A842
:1090D0008170B848C17A18A8C170B648017B18A839
:1090E0000171B448417B18A84171B248817B18A82E
:1090F0008171B048C17B18A8C171AF48017818A828
:10910000017201F0E9F90690002118A841728172FC
:1091100018A90698C87201F0E5F9A5490862084641
:10912000008C18A90873A248008C0004000E487334
:1091300000240320089007E009A90898085C44402F
:109140000898401CC0B2089008984A28F4DB18A878
:1091500084734B2783E00020002208A98A714622ED
:10916000CA710024032004E009A9095C4C40411C99
:10917000C8B20428F8DB08A90C7205276FE00021AB
:109180000020012308AA9371D571117200240320D5
:1091900004E009AA125C5440421CD0B20528F8DB56
:1091A00008AA547206275AE08448007808900020E4
:1091B00007900A218248006801F0ACFE06460521AE
:1091C00008A88171C57108A9089808727B480078C1
:1091D00000280DD108A846723004010E08A881723B
:1091E0003002010E08A8C172300E08A9087305E00C
:1091F000002108A841728172C1720173002403200A
:10920000079007E009A90798085C44400798401CAC
:10921000C0B2079007980928F4DB08A844730A270E
:109220001DE000265A2108A88171C57150226549A8
:109230000AA801F0ABFE062263491EA801F0A6FEB3
:109240000024032604E009A8805D4440701CC6B2D7
:109250005E2EF8DB20A884705F2700E000BF00BF0F
:10926000002600BF07E009A8825D314657A002F042
:10927000F5F9701CC6B2BE42F5DB57A002F0EEF95C
:10928000142F05DA3A4609A95448FBF796FD4DE03C
:109290001421384601F054FEC0B20890142138461B
:1092A00001F04EFEC8B2079000200690002614215F
:1092B00001A801F084FE002006901AE0002609E0D3
:1092C000142106984843811909A8405C01A98855D2
:1092D000701CC6B2142EF3DB142201A93F48FBF721
:1092E0006CFD142101A801F06AFE0698401CC0B272
:1092F0000690089906988842E0DB002609E01421D0
:1093000008984843811909A8405C01A98855701C38
:10931000C6B207988642F2DB01A93048079AFBF7EC
:109320004CFD142101A801F04AFE00BF27B0F0BD9A
:1093300070B504460D4629462046FFF7D0FC0020B4
:1093400070BD0146002070477047704710B500207F
:1093500000F08BFE10BD10B5002000F08BFE1E202B
:1093600000F088FE1D2000F085FE10BD10B51E2007
:1093700000F07BFE1D2000F07DFE10BD10B51D200D
:1093800000F073FE1E2000F075FE10BD70B504469F
:109390000D461646012C2BD111490870FFF7D6FF58
:1093A000FFF7E4FF01200F4908700A201CE00000CD
:1093B000D02A0020402B0020FC2A002098210020E9
:1093C00080210020642B0020772100205B25645D34
:1093D0003D25780D0A0000000D0A0000CC21002078
:1093E0001A2000201520002000F044FE00F00AFFA3
:1093F000002070BD704710B50024FE480078FE4A7A
:1094000081181023FD4AFB48103001F06BFD00BFAE
:1094100009E0FB48005DF949095D884201D0002060
:1094200010BD601CC4B2102CF3DB0120F8E7F0B5CE
:1094300085B016461C461421684601F0C0FD214641
:109440003046FFF7D8FB012807D122463146ED48C8
:1094500001F09CFDEC48047036E021463046FFF7F1
:10946000CAFB022808D122463146E64801F08EFDAB
:10947000E548047005B0F0BD21463046FFF7BBFB60
:10948000032812D122463146684601F07FFDDD49AE
:10949000DD4A127888182246314601F077FDDA4815
:1094A00000780019D84908700EE021463046FFF7D1
:1094B000A2FB042800D1DDE722463146D14801F065
:1094C00065FDD1480470D5E7CF480178CD48FFF756
:1094D000C8FB00287DD06621CC4801F070FDC9484A
:1094E0008078CA490870C748C07848700846027832
:1094F0004178C7A002F0B2F8002508E0281DC14954
:109500000A5C2946CEA002F0A9F8681CC5B2BF4883
:109510000078A842F2DCCCA002F0A0F8BB4840786A
:1095200086287DD004DC812807D0822879D151E0BB
:10953000902877D0A028F9D1DEE0B24880780028C2
:1095400041DDB0480079C1490870AE4840794870A3
:10955000AC4880798870AB48C079C870A948007A57
:109560000871A848407A4871A648807A8871A54851
:10957000C07AC871A348007B0872A248407B487239
:10958000A048807B08739F48C17BB04841739D48C9
:10959000017CAE4881739B48417CAC48C1739948BB
:1095A000817CAA4801749748C17CA84841749548B9
:1095B000017DA64881749348417DA448C1749148B7
:1095C000817DA248017541278E493846FFF7B0FEDC
:1095D0009EE09FE08B480079803886490870894872
:1095E0004079487087488179824881708548C1797F
:1095F0008048C1708348017A7E4801718148417A70
:109600007C4841717F48817A7A4881717D48C17A6E
:109610007848C1717B48007B7649C860084602E003
:1096200053E06FE062E0C0687649497B0902FF229F
:109630001202114008436F49C8600846C06871496A
:10964000897B09041202114008436A49C860084630
:10965000C0686C49C97B0906090E090608436549BB
:10966000C860102008E067490B5C01461039614A68
:1096700010325354411CC8B22028F4DBFFF7BBFE64
:10968000002816D00A2072494968012282405140C0
:109690006F4A516000BF002211460120FFF776FE9D
:1096A00001206C49087000206B4908706B490870F4
:1096B00005E003206949087069A001F0CFFF422747
:1096C00050493846FFF734FE22E04E4880780028A3
:1096D00005D146274B493846FFF72AFE05E01627F5
:1096E00048493846FFF724FE00BF11E0502745499E
:1096F0003846FFF71DFE0BE0602742493846FFF76A
:1097000017FE05E0FE273F493846FFF711FE00BF70
:1097100000BF05E0FF253B492846FFF709FE00BFD3
:109720000020394908702821364801F048FC00BF64
:10973000A0E610B504464C480068401C4A49086041
:109740000846006801F019FC0120484908704148AA
:109750000078012804D100203E4908704249086081
:1097600010BD38B500BF0020414B0B2210210090E6
:10977000FCF79CFA054600BF2B46002B05D000BF26
:109780003C4A3D491846FFF7DDF900BF00BF3B4AA0
:1097900001213B48FCF705FB044600BF2346002B94
:1097A00006D000BF334A3449C91C1846FFF7CAF92E
:1097B00000BF38BD3EB500BF684600780109090109
:1097C000491C009168460078F021884310300090D1
:1097D00000BF2C4801F0FEFB85B22A4629496846A5
:1097E0007CDF044600BF2346002B51D000BF214A36
:1097F000F52149E0FC2A0020642B0020C42B002026
:10980000522B0020D42B002090210020682A002019
:109810007265636569766520636D64203D307825E7
:10982000303278202C6C6F636B5F7265636569768C
:10983000652E6C656E3D253032640D0A0000000017
:1098400025692D2D257820000D0A0000D02A002042
:10985000000500507E2100207F210020842100206F
:109860006661696C0D0A000080210020BB21002088
:10987000FC2B0020808F01008A0700003397010035
:10988000682100201C2B0020C9001846FFF75AF958
:1098900000BFFD4878DF044600BF2346002B05D0FB
:1098A00000BFFA4AFA491846FFF74CF900BF0020FA
:1098B00001900290502168468180FF21E131C180F2
:1098C00000210181FF219131418101A87ADF044605
:1098D00000BF2346002B06D000BFEC4AEC490A31FA
:1098E0001846FFF72FF900BF002077DF044600BFBE
:1098F0002346002B06D000BFE44AF721C9001846D2
:10990000FFF720F900BF3EBD10B596B006200690C7
:1099100004A871DF044600BF2346002B06D000BF19
:10992000DA4ADB4924311846FFF70CF900BF002161
:1099300068460181113003903C2107A801F03FFBEC
:1099400002200790012108A841706846818406A979
:109950000A9101A81390002107A8FBF73CFD0446DB
:1099600000BF2346002B06D000BFC84AC849343187
:109970001846FFF7E7F800BF1421C64801F01FFBA7
:109980000020C449087048600872C34800880882F3
:109990000020488216B010BD10B590B04021684636
:1099A00001F00DFBBDA16846FBF77CFD00BF08A8D8
:1099B000007F01090901491C08A80177007FF021F7
:1099C0008843103008A9087700BF00BF0FA840786F
:1099D000000900010FA948700FA84078F0218843C2
:1099E0000FA9487000BF6846FAF7BEFF044600BFE3
:1099F0002346002B06D000BFA44AA5494F31184684
:109A0000FFF7A0F800BF10B010BD1CB500200090FB
:109A1000019000BF6846407901090901491C684668
:109A200041714079F021884310306946487100BF88
:109A300000BF6846807900090001401C88716846B3
:109A40008079F021884310306946887100BF00BFDB
:109A50006846C07900090001401CC8716846C07999
:109A6000F021884310306946C87100BF93480090C8
:109A7000012008719248FBF777F9044600BF23469E
:109A8000002B06D000BF814A812109011846FFF74B
:109A900059F800BF1CBD10B5FFF77EFFFFF7B5FFFB
:109AA00010BD1E2087490880084680784008400085
:109AB000401C88700846807802218843814988705C
:109AC000084680781C2188430C307E4988700846FF
:109AD0008078202188437B4988700720C870102037
