:101123004F4B2020200020202020200020202000C2
:101133004572726F720020202020202000536574B6
:101143002D313A2020202020202020202000202084
:10115300202020536574204F4B202020202000495D
:101163006E7075743A20202020202020202020003B
:0E1173004F4B002020004572004E756D3A0073
:10137E0001500001AC0001AD0001AE0001AF000153
:0E138E007E00017F0001530001540001660043
:0E146C0012124E12149112145A7F4102118175
:100ABC007B007A00799E7F521210C2EF6003020B0A
:100ACC00B9FB7A0079A8120E80EF6003020BB9C251
:100ADC00947F14FE12139DD29478A8E6F5516556B6
:100AEC006018E551655D6012E551655F600CE5517C
:100AFC0065606006E551656170707BFF7A11792342
:100B0C00750C057FCA121306C296C2977FC87E0069
:100B1C0012139DD297D2967BFF7A117929750C0509
:100B2C007FCA1213067BFF7A11792F750C037FC4D1
:100B3C00121306755E0178A8E6FF75F06484243004
:100B4C00F562EF75F00A8475F00A84E5F02430F54F
:100B5C0063E675F00A84E5F02430F5647B007A00D6
:100B6C007962750C037FC40213067BFF7A1179330B
:100B7C00750C057FCA121306C2957FC87E0012132E
:100B8C009DD295C2947F887E1312139DD2947BFFC5
:100B9C007A117929750C057FCA1213067BFF7A111D
:0E0BAC00792F750C037FC4121306755E0222AA
:1000030075A0F0E5A064F0700302048D7F0F7E00FD
:1000130012140AE5A064F0700302048D1212C98F52
:1000230050E550B4100040030200B3900035F828A7
:1000330028730200B00200AB0200A60200A1020076
:100043009C02009702009202008D02008802008346
:1000530002007E02007902007402006F02006A024D
:1000630000657550018049755002804475500380C6
:100073003F75500B803A75500480357550058030BC
:10008300755006802B75500C80267550078021759E
:100093005008801C755009801775500D80127550DB
:1000A3000F800DE4F5508008755010800375500ED5
:1000B300C2947F0A7E0012139DD294E56660030208
:1000C300031FE554C39406505BE550C3940B50548F
:1000D3000554E55424FE601614601914601C146062
:1000E3001F1460222405702278A2A650801C78A3D6
:1000F300A650801678A4A650801078A5A650800A32
:1001030078A6A650800478A7A650E5502430FF7443
:10011300562554F8A6077B007A00795785540C7F3F
:1001230087121306E550640E7025E5547003755469
:100133000115547BFF7A117939750C067F871213E9
:10014300067B007A00795785540C7F87121306E5E6
:1001530050640C7027E553B40122756601E4F5542D
:100163007BFF7A117940750C107F801213067BFF99
:100173007A117939750C067F87121306E550640FDF
:10018300600302025E78ACF608F608F608F6787E9D
:10019300F608F67BFF7A117951750C107F801213E4
:1001A30006C2967FC87E0012139DD2967BFF7A11FA
:1001B3007962750C107F80121306E4F554F566FF1F
:1001C3007E2C121420E565FD7C007F007E2C12132B
:1001D300F3E556FD7C007F017E2C1213F3E55DFDF4
:1001E3007C007F027E2C1213F3E55FFD7C007F030E
:1001F3007E2C1213F3E560FD7C007F047E2C12132A
:10020300F3E561FD7C007F057E2C1213F378ACE6E9
:10021300FD7C007F107E2C1213F378ADE6FD7C008D
:100223007F117E2C1213F378AEE6FD7C007F127EE5
:100233002C1213F378AFE6FD7C007F137E2C121390
:10024300F3787EE6FD7C007F147E2C1213F3787F17
:10025300E6FD7C007F157E2C1213F3E550640B60E2
:100263000302031F79A2E778AC66706B09E708669F
:10027300706509E70866705F09E70866705909E762
:10028300787E66705209E70866704C7BFF7A1179B5
:1002930073750C027F8E121306C296C2977FC87EB7
:1002A3000012139DD297D2967BFF7A117939750C80
:1002B300067F871213067BFF7A117976750C027F0E
:1002C3008E121306C2947F147E0012139DD294E4FF
:1002D300F55475530180457BFF7A117979750C02CA
:1002E3007F8E121306C2957FC87E0012139DD2958E
:1002F300C2947FC87E0012139DD2947BFF7A11793A
:1003030039750C067F871213067BFF7A1179767590
:100313000C027F8E121306E4F553F554E56664016F
:100323006003020486E554C39406505BE550C3940E
:100333000B50540554E55424FE60161460191460E0
:100343001C14601F1460222405702278ACA6508010
:100353001C78ADA650801678AEA650801078AFA654
:1003630050800A787EA6508004787FA650E55024FA
:1003730030FF74562554F8A6077B007A0079578519
:10038300540C7F87121306E550640E7025E55470F4
:100393000375540115547BFF7A117939750C067F67
:1003A300871213067B007A00795785540C7F8712D6
:1003B3001306E550640B60030204867BFF7A117910
:1003C30051750C107F80121306C2967FC87E0012EF
:1003D300139DD2967BFF7A117962750C107F801280
:1003E3001306E4F554F566FF7E2C121420E565FD33
:1003F3007C007F007E2C1213F3E556FD7C007F0109
:100403007E2C1213F3E55DFD7C007F027E2C12131C
:10041300F3E55FFD7C007F037E2C1213F3E560FDA3
:100423007C007F047E2C1213F3E561FD7C007F05C5
:100433007E2C1213F378ACE6FD7C007F107E2C1229
:1004430013F378ADE6FD7C007F117E2C1213F37855
:10045300AEE6FD7C007F127E2C1213F378AFE6FD2F
:100463007C007F137E2C1213F3787EE6FD7C007FE5
:10047300147E2C1213F3787FE6FD7C007F157E2C0F
:0B0483001213F37F147E0012139D2261
:10048E0012146C1213587BFF7A11797C750C047F51
:10049E00C01213067BFF7A117962750C107F8012E1
:1004AE0013067F007E2C1213D88F657F017E2C12CF
:1004BE0013D88F567F027E2C1213D88F5D7F037E4A
:1004CE002C1213D88F5F7F047E2C1213D88F607F6F
:1004DE00057E2C1213D88F617F107E2C1213D878C4
:1004EE00ACA6077F117E2C1213D878ADA6077F120B
:1004FE007E2C1213D878AEA6077F137E2C1213D83B
:10050E0078AFA6077F147E2C1213D8787EA6077FAD
:10051E00157E2C1213D8787FA6071209BB120ABCBF
:10052E001200032093F47F327E0012139D2093EA73
:10053E00E55E640270557BFF7A117923750C057F99
:10054E00CA1213067F647E0012139D0565E565B41D
:10055E000603756501E565B40103855156E565B47D
:10056E00020385515DE565B4030385515FE565B40E
:10057E000403855160E565B405038551617BFF7AFF
:10058E00117929750C057FCA121306E55E64017098
:10059E004B7BFF7A117933750C057FCA1213067FD8
:1005AE00647E0012139DE551B55603E4F556E551F0
:1005BE00B55D03E4F55DE551B55F03E4F55FE55127
:1005CE00B56003E4F560E551B56103E4F5617BFFC9
:1005DE007A117929750C057FCA121306C2947F14FD
:1005EE007E0012139DD2947F007E2C121420E5659E
:1005FE00FD7C007F007E2C1213F3E556FD7C007F00
:10060E00017E2C1213F3E55DFD7C007F027E2C1221
:10061E0013F3E55FFD7C007F037E2C1213F3E56080
:10062E00FD7C007F047E2C1213F3E561FD7C007FC0
:10063E00057E2C1213F378ACE6FD7C007F107E2C29
:10064E001213F378ADE6FD7C007F117E2C1213F3AE
:10065E0078AEE6FD7C007F127E2C1213F378AFE6A7
:10066E00FD7C007F137E2C1213F3787EE6FD7C005A
:10067E007F147E2C1213F3787FE6FD7C007F157EAF
:0F068E002C1213F3E4F55E30930302052880F875
:1009BB007880E6FF14B40C004003020ABB9009D602
:1009CB0075F003A4C58325F0C583730209FA020AE7
:1009DB0000020A2C020A43020A57020A57020A575C
:1009EB00020A5D020A7D020A92020ABB020AAA12DD
:1009FB00128C020A8A7881E6FF7B007A00798212D8
:100A0B0010C28F08E50860157881E6FF7B007A003D
:100A1B0079821210C28F08E50860028029788080E5
:100A2B00217B007A007982120E808F08E50878808E
:100A3B006002800A76058063E508788060047601A1
:100A4B0080597603805578807601804F78807601C7
:100A5B0080497881E6FF7B007A00798212105F8FE4
:100A6B0008E508788070047611800276017881A6FB
:100A7B0008227881E6FF7B007A007982120CB28F14
:100A8B00087880760180147881E6FF08E6FD7B000C
:100A9B007A007983120BBA7880760108A60822783F
:100AAB0081E6FF08E6FD120FEB78807601E408F68D
:010ABB002218
:0810C2008F098B0A8A0B890CCF
:1010CA001214487D077F0D1212137D037F14121428
:1010DA007A85090F75260175270075280075290F6D
:1010EA00752A00752B00752C0D7A00790F1206B639
:1010FA00EF7023E50E6410450D701BAB0AAA0BA90D
:10110A000CE50F120968AB0AAA0BA90C900001E5BD
:08111A001012097A80027FFE29
:0111220022AA
:060E80008B098A0A890BB0
:100E8600E4F50D121448E4FD7F0D1212137D807FE8
:100E96000E12144C751093751120752602752700D5
:100EA600752800752910752A00752B00752C0E7B88
:100EB600007A0079107F0C1206BA8F0CE50C702BA5
:100EC600FF74102FF8E6AB09AA0AA90B8F82758367
:100ED6000012097A74102FF8E6620D0FBF04E2744F
:100EE600102FF8E6650D6003750CFE7D807F0E12EF
:040EF600147AAF0CAF
:010EFA0022D5
:060EFB008B678A6889691B
:100F0100756C93756D70E4F572FFAB67AA68A9699A
:100F11008F8275830012093BFE746E2FF8A6068F2F
:100F21008275830012093B62720FBF04DD752500D3
:100F31007526007527737B007A00796C7D07120E88
:100F41000A12144875260975270075280075296C41
:100F5100752A00752B00752C6A7B007A00796C7FED
:100F61000C1206BAEF700BE56B6418456A7003FF4B
:040F710080027FFE7D
:010F75002259
:060F76008B358A36893735
:100F7C008F3E8D3FE4FFAB35AA36A9378F82758340
:100F8C000012093BFE74402FF8A6060FBF06E7E4DB
:100F9C00FFAB38AA39A93A8F8275830012093BFE40
:100FAC0074462FF8A6060FBF06E775260C752700AA
:100FBC0075280075293E752A00752B00752C3C7B15
:100FCC00007A00793E7F0E1206BA8F3BE53B700922
:0E0FDC007F081211D2EF20E303753BFEAF3BFE
:010FEA0022E4
:06105F008B098A0A890BCF
:10106500750E308F0F7525007526007527107A00CF
:10107500790E120E06752604752700752800752948
:101085000E752A00752B00752C0C7B007A00790EE5
:101095007F0C1206BAEF7022E50D6490450C701AAC
:1010A500FE740E2EF8E6AB09AA0AA90B8E8275838B
:0C10B5000012097A0EBE10E980027FFED6
:0110C100220C
:060CB2008B098A0A890B80
:100CB800750EA08F0F7525007526007527107B000F
:100CC8007A00790E7D02120E0A75260475270075C2
:100CD800280075290E752A00752B00752C0C7B00D1
:100CE8007A00790E7F0C1206BAEF7010E50D6404D5
:100CF800450C7008E50E540F640A60027FFEEF7021
:100D080063FEAB09AA0AA90B8E8275830012093B00
:100D1800FD740E2EF8A6050EBE10E7752500752683
:100D28000075271E7B007A00790E7D10120E0A7559
:100D3800261275270075280075290E752A00752B4F
:100D480000752C0C7B007A00790E7F0C1206BAEF26
:100D58007010E50D6404450C7008E50E540F640A24
:040D680060027FFEA8
:010D6C002264
:10128C00750C50E4F50DF52575260075270EFB7AC7
:10129C0000790C7D02120E0A75260475270075283C
:1012AC000075290C752A00752B00752C0A7B007AA9
:0C12BC0000790C7F0C1206BA8F097F002D
:0112C8002203
:100DF90075250075260075270E7A00790C7B007D14
:010E090002E6
:080E0A008B218A2289238D242B
:100E12007D047F0512144C12120F7D807F0A12147A
:100E22007AE4F528E528C395245019AB21AA22A912
:100E32002385288275830012093BFD7F0912121354
:100E4200052880E07D037F011212137528FF7F05BC
:100E52001211D21528E5286004EF30E2F17F221248
:100E620011D2AB25AA26A927EF1209687F211211F8
:0E0E7200D2AB25AA26A927900001EF02097A2B
:10124E00D2B700C2B700D2B7007D0F7F01121213C2
:10125E00007D3D7F111212137D1E7F2D121213E49D
:10126E00FD7F2C1212137D8D7F2A1212137D3E7F6D
:0E127E002B1212137D407F151212137F0022D7
:10118100EF644170401214487D3D7F111212137DAE
:10119100867F171212137D7F7F261212137D1E7F09
:1011A1002D121213E4FD7F2C1212137D8D7F2A1252
:1011B10012137D3E7F2B1212137F017E0012139DAD
:0B11C10012145A80037FFF227F0022DF
:0611CC00AC07AB05E4FED8
:1011D200E4FEC2B4C2B3EF25E0547E4480FF7D0832
:1011E200EF30E703D38001C392B5D2B4EF25E0FF1D
:1011F200C2B4DDEC7D08D2B4EE25E0FEA2B6E43343
:0C1202004206C2B4DDF0D2B3D2B4AF0695
:01120E0022BD
:04120F00E4FD7F017A
:10121300C2B4C2B3EF25E0547EFF7E08EF30E7038C
:10122300D38001C392B5D2B4EF25E0FFC2B4DEECA4
:101233007E08ED30E703D38001C392B5D2B4ED2528
:0A124300E0FDC2B4DEECD2B3D2B479
:01124D00227E
:0D147A001211CCAE07AF04EB4EFD021213B1
:041448007D087F0894
:0E144C001211CCAE07AF04EBF45EFD021213DA
:10069D0075260475270075280075290C752A0075B7
:0D06AD002B00752C0A7A00790C7B007F0C65
:0806BA008F228B238A2489257D
:1006C200752DFEE4F52EF52FE52224F4600C24FEB0
:1006D200700E752E12752F108006752E77752F30BD
:1006E200E52E4480FD7F021212137D807F041214D6
:1006F2004C12120F7D807F0A12147AE4F531F53222
:10070200C3E5329526E5319400501FAB23AA24A9F4
:100712002585328285318312093BFD7F091212132E
:100722000532E53270DA053180D6AD227F01121230
:1007320013E522B40C077D807F0D12147A75310700
:100742007532D07F041211D28F30E5321532700229
:100752001531E53245316009E53020E004552F605E
:10076200E27D807F0D12144CE532453170030208A0
:100772001F7F061211D2EF541B600302081CF52DD5
:10078200E530552E30E003752DFFE522640C600341
:1007920002081F7F0A1211D28F307F0C1211D2EF82
:1007A2005407FD6021E53024FFFFE434FFFEEF78BB
:1007B20003C333CE33CED8F97C002DFFEC3EAB2AF7
:1007C200AA2BA92C800FE53075F008A4FFAB2AAA4A
:1007D2002BA92CE5F08FF012099CE53070037530DF
:1007E20001E530D394124003753012E4F531F5324D
:1007F200C3E5329530E531940050227F091211D2BF
:10080200AB27AA28A929853282853183EF12097A7A
:100812000532E53270DA053180D6752DFE7D807F96
:090822000C12147A12120FAF2D12
:01082B0022AA
:10145A007F141211D2EF540370077D037F14121404
:01146A007A07
:01146B00225E
:071491007D037F1402144CDF
:080BBA008D098B0A8A0B890CDE
:100BC2008F0F8509107525007526007527117B008A
:100BD2007A00790F7D02120E0A75260475270075B8
:100BE200280075290F752A00752B00752C0D7B00C6
:100BF2007A00790F7F0C1206BAEF7010E50E6404CA
:100C0200450D7008E50F540F640A60027FFEEF7015
:100C12004E780F7C00FDAB0AAA0BA90CFE7F0412D2
:100C220008FC7525007526007527137B007A00796C
:100C32000F7D04120E0AE4F50DF50E752606F52752
:100C420075280075290FF52A752B00752C0DFB7A76
:100C520000790F7F0C1206BAEF64FE6002E4FFEF28
:100C6200704D750FB0850910F52575260075271191
:100C7200FB7A00790F7D02120E0A75260475270091
:100C820075280075290F752A00752B00752C0D7BB0
:100C9200007A00790F7F0C1206BAEF7010E50E642D
:0F0CA20004450D7008E50F540F640A60027FFED1
:010CB1002220
:020FEB008D096E
:100FED00750CC28F0D120DF912069DEF7010E50BE9
:100FFD006404450A7008E50C540F640A60027FFE14
:10100D00EF7027F50CF50DF50EF50FF5257526008E
:10101D00752710FB7A00790C7D04120E0A752606D1
:10102D001206A0EF64FE6002E4FFEF60037FFE2274
:10103D00750CB085090D120DF912069DEF7010E5B6
:10104D000B6404450A7008E50C540F640A60027FB6
:01105D00FE94
:01105E00226F
:10139D00D3EF9400EE940040147D607C04ED1D703D
:0D13AD00011CED4C70F7EF1F70E61E80E391
:0113BA002210
:04149D00EFDFBF7F3F
:10140A00E4FDEDC39FE49E500CE4FC0CECD39494F1
:05141A0040F90D80ED1A
:01141F0022AA
:1013BB00E4FFFEE4FDFC0DBD00010CED64034C707D
:0C13CB00F50FBF00010EEF640B4E70E741
:0113D70022F3
:1012C90078087C007D007BFF7A14799D7E007F047D
:1012D9001208FCE4FB74082BF8E6F5A01213BB7F97
:1012E90001E4FEE5A05F7008EB25E025E02EFF2272
:0C12F900EF25E0FF0EBE04EB0BBB04D998
:0113050022C5
:10133200C2918F807F0A7E00121343D2927F147E65
:0113420000AA
:10134300D3EF9400EE9400400B7D13DDFEEF1F708E
:04135300EF1E80EC1D
:011357002273
:091435007F647E001213437F382E
:0A143E00C292C290121332C2922231
:0A148700C292D290121332C29222D8
:101358007F2C7E011214391214351214357F38127D
:10136800143E7F0812143E7F0112143E7F061214A9
:061378003E7F0C02143E52
:051498007F0102143E7B
:061306008B098A0A890B25
:10130C0012143EE4FCECC3950C501AAB09050BE52A
:10131C000BAA0A7002050A14F9120922FF7E0012A8
:05132C0014870C80E0B5
:011331002299
:101420008FE4EEFF8FE375E78175E50375E646759A
:05143000E6B9000022F6
:1013D8008FE4EEFF8FE3C2AF75E78175E50175E62F
:0A13E8004675E6B90000AFE27E0092
:0113F20022D8
:1013F3008DE28FE4EEFF8FE375E78175E50275E615
:071403004675E6B900002266
:03000000020D6D81
:0C0D6D00787FE4F6D8FD7581AF020DB46C
:10082C00E709F608DFFA8046E709F208DFFA803EAE
:10083C0088828C83E709F0A3DFFA8032E309F6089B
:10084C00DFFA8078E309F208DFFA807088828C8303
:10085C00E309F0A3DFFA806489828A83E0A3F608B7
:10086C00DFFA805889828A83E0A3F208DFFA804C91
:10087C0080D280FA80C680D4806980F28033801068
:10088C0080A680EA809A80A880DA80E280CA8033D1
:10089C0089828A83ECFAE493A3C8C582C8CCC58349
:1008AC00CCF0A3C8C582C8CCC583CCDFE9DEE78019
:1008BC000D89828A83E493A3F608DFF9ECFAA9F098
:1008CC00EDFB2289828A83ECFAE0A3C8C582C8CCEE
:1008DC00C583CCF0A3C8C582C8CCC583CCDFEADE07
:1008EC00E880DB89828A83E493A3F208DFF980CC69
:1008FC0088F0EF60010E4E60C388F0ED2402B40462
:10090C000050B9F582EB2402B4040050AF23234508
:06091C00822390087C73A9
:10092200BB010689828A83E0225002E722BBFE02D3
:09093200E32289828A83E4932206
:10093B00BB010CE58229F582E5833AF583E0225071
:10094B0006E92582F8E622BBFE06E92582F8E222BB
:0D095B00E58229F582E5833AF583E49322D5
:10096800BB010689828A83F0225002F722BBFE016E
:02097800F32268
:10097A00F8BB010DE58229F582E5833AF583E8F0B3
:10098A00225006E92582C8F622BBFE05E92582C85F
:02099A00F22247
:10099C00BB010A89828A83F0E5F0A3F0225006F7A6
:0F09AC0009A7F01922BBFE06F3E5F009F31922A3
:100D790002048EE493A3F8E493A34003F68001F2FE
:100D890008DFF48029E493A3F85407240CC8C3337B
:100D9900C4540F4420C8834004F456800146F6DF4A
:100DA900E4800B010204081020408090137EE47E49
:100DB900019360BCA3FF543F30E509541FFEE4933F
:100DC900A360010ECF54C025E060A840B8E493A306
:100DD900FAE493A3F8E493A3C8C582C8CAC583CA31
:100DE900F0A3C8C582C8CAC583CADFE9DEE780BEE9
:01139C000050
:00000001FF
